:020000040000FA
:100000000080002061240000014000206B240000DB
:1000100000000000000000000000000000000000E0
:100020000000000000000000000000006B24000041
:1000300000000000000000006D2400006F2400009C
:1000400071240000630A0000712400007124000084
:1000500071240000AF350000530800007124000037
:10006000712400007124000071240000712400003C
:100070005536000071240000712400007124000036
:10008000712400007124000071240000712400001C
:100090000348854603F0CEFB00480047B503000047
:1000A000008000207CB57B4D0C462878090408D5DB
:1000B00015F0EAFC002801D015F0BEFC0120C003B9
:1000C00024E0E10701D0012020E061070BD5FF21EA
:1000D000F53100910822019000231146688805F04F
:1000E0009FFA042012E0A00712D56B48007801287F
:1000F00006D1684B082214330121002001F0A0FD35
:1001000020220221287815F09BFE022060407CBD51
:1001100000207CBD30B585B060480BF0D1FB5D4D53
:100120000124287069460C706A4621465C4805F037
:100130001FFC5B482A1D0721401C05F019FC58488C
:100140002A461C321D21801C05F012FC554A15213F
:10015000002007F02BF90020694600900C7108720E
:10016000032008730C746A4604214F4804F0DEFF34
:10017000012101AA880204F0D9FF4B4802AA0121FB
:10018000801F04F0D3FF484803AA0121401F04F058
:10019000CDFF454804AA0121801E04F0C7FF0620B8
:1001A0006946087001216A46084601F056FA02F0D5
:1001B0001DF829463C310846303801F023FD012165
:1001C000287815F0EBFC05B030BD1CB503000BF032
:1001D00029FD072E05101F121D2F2E00C120694674
:1001E000800005F095F96946012005F099FD2FA0E2
:1001F0001FE032A01DE02748498941801922D20121
:100200000421007815F01CFE30A012E033A010E0AD
:100210008878042805D0062805D0052807D136A0FF
:1002200007E03BA005E0897940A00BF0D3FC1CBDA2
:1002300045A00BF0CFFC1CBDF8B50024079E069D21
:10024000002B04D0012B15D0022B19D01FE0414BFD
:100250009A420AD1022908D12B78012B03D00D2410
:10026000002C02D013E00024FAE700962B7802F06D
:1002700019F803E02B46009602F034F8044606E035
:100280000448FF22F5320221007815F0D9FD2046FE
:10029000F8BD70472842002085420020A5000000DC
:1002A00005030000AE5F010007040000496E697499
:1002B00069616C697A65642E2E0A00004164766576
:1002C00072746973696E672E2E0A0000436F6E6E3A
:1002D00065637465642E2E0A00000000436F6E6E25
:1002E0006563746564204164766572746973696ED0
:1002F000672E2E0A000000004164766572746973EF
:10030000696E672074696D656F75742E2E0A000022
:1003100057616974696E6720666F722061647665E3
:1003200072746973696E672E2E0A000044697363E4
:100330006F6E6E65637465642E2E20526561736FF7
:100340006E3A25780A0000004572726F722E2E0AEE
:10035000000000004D2A000010B503F098F825A019
:100360000BF038FC03F013F926A00BF033FC05F07A
:10037000E7F927A00BF02EFC01F00DF92BA00BF0F4
:1003800029FC01F018FC2DA00BF024FCFFF7C2FEA5
:100390002EA00BF01FFC00F040FA30A00BF01AFC6E
:1003A00000F046FF31A00BF015FCFF20F53002F005
:1003B000A9FD10BD022002F078F8012002F0E6F855
:1003C0001021012002F08AFC052002F09BFD2B4940
:1003D0008A6A481502438A62032102F0B9FB02F0DF
:1003E000BEFD274927A00BF0F5FBFFF7B5FF0BF08B
:1003F00085FAFCE743483537585F424C45496E69FA
:10040000740D0A0048414C5F496E69740D0A000082
:10041000474150526F6C655F5065726970686572D4
:10042000616C496E69740D0A000000005753323840
:1004300031325F496E69740D0A00000048696444F6
:1004400065765F496E69740D0A000000486964456D
:100450006D755F496E69740D0A000000557362483E
:1004600069645F496E69740D0A0000006B6579422A
:100470006F6172645F496E69740D0A0080100040FC
:100480006462010025730A00704710B5F148FF212E
:1004900000684030C171082002F0DEFD10BD10B5CB
:1004A000ED49FF22096840318A7002F0CDFD10BD90
:1004B00070B5EB4A0021E94D126805E053186C5CF9
:1004C0004033491C1C70C9B28142F7D302F0B4FD1D
:1004D00070BDFEB5E34D0026A879E34C81077DD5BC
:1004E000E879E24F8206E248920EB9780068202A45
:1004F00075D006DC13000BF095FB05FDFCFBFAF94B
:100500007500232A6CD004DC212A6AD0222A69D102
:100510001DE1242A67D0302AF9D1C221A170297A9D
:1005200008296ED1C179827909021143B9800291FB
:100530004278BA7003780093019300215B069B0F09
:1005400004D0092A01D00A2A5BD1A5E013000BF0E0
:1005500069FB0B9B6E8282825E07826468948200D4
:10056000C278837812021A43130A012B06D0022B99
:1005700008D0032B17D0222B1CD108E0BD49B9604D
:10058000122118E0BB491231B960732113E042799E
:10059000037912021A431206120E0BD1B5493D39E6
:1005A000B9603D2107E01206120E20D0012A23D0A7
:1005B000022A27D0FF26029A8A4200D9B980B98838
:1005C000402900D34021C9B20A460091B96803F01E
:1005D000E0F8B86800994018B86005E0DEE06CE02B
:1005E000C2E0A7E09EE0CEE0FF2E34D054E0A14967
:1005F0004139B9600421DEE79E498531B9600E2199
:10060000D9E728E09B499331B9600C21D3E7C17841
:10061000827808021043C0B201E079782EE0B880F9
:100620003AE0C178827808021043787034E000998B
:10063000C906C90E02290ED1417902790802104378
:10064000C0B27321012814D002280AD0BC2181280D
:100650000BD0822801D0CF2057E0A07A0840801C20
:1006600001E0A07A0840A07216E0A0790840801C42
:1006700001E0A0790840A0710EE000210170B88867
:10068000012809D90120CAE7002101704170B8880A
:10069000022801D90220C2E70198000609D5B988CD
:1006A000402901D9402000E00846C0B2091AB980AB
:1006B00000E000202070C02027E06C4A05299288C5
:1006C0001DD0062902D0002020701DE0402A00D352
:1006D0004022D6B23246B96803F05BF8B888801B76
:1006E000B880B8688019B860267004E042E034E051
:1006F00026E018E00BE0A0784021484005E0E878CB
:10070000C009C0011043E8700220A07044E02A7ABA
:10071000092941D10078002801D057A000E05CA051
:100720000BF058FA38E0E879400635D5287AFFF71B
:10073000BFFE31E0A07980088000801CA0712BE012
:10074000E879400628D5287AFFF7A9FE24E0A07AA8
:1007500080088000801CA0721EE0E87940061BD54E
:10076000287AFFF792FE17E0A07B80088000801CAB
:10077000A07311E0E87940060ED5A07C80214840A6
:10078000A074287A08E0A07C40214840A074A07C96
:1007900080088000801CA07402200CE0C1070CD0EF
:1007A0000020E8700220A0701220A071A072A07337
:1007B000A87901210843A871FEBD4107FBD56879DE
:1007C0000420F8E770B50C460A462A4937A09F3145
:1007D0000BF000FA254D20040AD5287815F054F9BD
:1007E000002801D015F028F90120C003604070BD39
:1007F000E007FCD031480078002805D10820FFF739
:1008000057FE0820FFF74BFE40220121287815F003
:1008100017FB20460121484070BD10B528480BF059
:100820004FF8124C12492070264808600C49C0301D
:10083000086009498030086006498030086002F08D
:10084000D3FB2149402008600121207815F0A6F94A
:1008500010BD3EE6F0470020EC4700203C4200205F
:10086000E8470020008000402080004074420020C3
:10087000E4470020046001004C69676874206F6ED3
:10088000204E756D204C6F636B204C4544210A004F
:100890004C69676874206F6666204E756D204C6FDA
:1008A000636B204C4544210A000000002573204959
:1008B0004E2C6576743D25580A00000085420020C4
:1008C000C5070000C86A002000E100E070B56C4870
:1008D0007D2502786B49CF202D016B4C13000BF066
:1008E000A1F905040D1D41590C0008784006400E81
:1008F0000870087830221043087070BD0A785206DC
:10090000520E0A700A7802400A7060A00BF062F979
:10091000012002F0F7FA02F04FFA1EE00A785206C0
:10092000520E0A700A7802400A705DA00BF052F96C
:10093000012002F0E7FA02F0CBFF22E020898005D7
:1009400002D4AE2002F0CEFA012001F044FE0120D4
:1009500002F0C8FA022001F0A8FD56A00BF03AF907
:10096000284644E00A785206520E0A700A7802407D
:100970000A7053A00BF02EF9012002F0C3FA02F026
:10098000ADFFA07A4007D9D40421012002F0A6F9D6
:10099000F020D7E70A785206520E0A700A78024011
:1009A0000A704CA00BF016F9012002F0ABFA0020FF
:1009B00002F09AFFA07A400705D40421012002F03A
:1009C0008DF9F02003E02089800502D4AE2002F0EA
:1009D00089FA012001F0FFFD012002F083FA0220D4
:1009E00001F063FD33A00BF0F5F8FF20F53002F0C5
:1009F00089FA70BD10B50C46090408D515F044F805
:100A0000002801D015F018F80120C0030BE0E00722
:100A10000AD0FFF75BFF1A481922520101214078E2
:100A200015F00EFA0120604010BD10B52F480AF0F5
:100A300047FF134C01216070022002F0AEF8022142
:100A4000084602F0F2F82A4902200860102101202D
:100A500002F083F9192292010121607815F0F0F972
:100A600010BD094902208031C88305490878401C1F
:100A7000C0B20870052801D300200870704700003C
:100A800080420020008000400010004049444C4556
:100A9000206D6F646520736C656570200A0000002E
:100AA00048616C745F31206D6F646520736C65659F
:100AB00070200A0077616B652E2E200A000000006E
:100AC00048616C745F32206D6F646520736C65657E
:100AD00070200A007368757420646F776E206D6FE4
:100AE000646520736C656570200A0000F5090000DC
:100AF00000E100E00B4610B500281146184602D070
:100B000002F04BF810BD02F023F810BD002802D00F
:100B1000FE48406802E0FD484038406A084000D086
:100B20000120704700280AD0F848012A03D0C26883
:100B30000A43C260704782680A4382607047F34884
:100B40004038012A03D0C26A0A43C2627047826AEF
:100B50000A4382627047F8B5032280210120FFF723
:100B6000C9FF032240210120FFF7C4FF03222021F7
:100B70000120FFF7BFFF032210210120FFF7BAFF7A
:100B8000032208210120FFF7B5FF00228021012068
:100B9000FFF7C8FF002240210120FFF7C3FF00221A
:100BA00020210120FFF7BEFF002210210120FFF7C6
:100BB000B9FF002208210120FFF7B4FF0A2002F04C
:100BC000A1F9032220210020FFF794FF03224021F6
:100BD0000020FFF78FFF032201210020FFF78AFF8B
:100BE000032202210020FFF785FF032204210020B9
:100BF000FFF780FF032208210020FFF77BFF01247D
:100C0000E403032221460020FFF774FF651003224E
:100C100029460120FFF76EFFA6100322314600206F
:100C2000FFF768FF032204210120FFF763FF03227F
:100C300002210120FFF75EFF012103220846FFF792
:100C400059FFA701032239460120FFF753FF032272
:100C500061010120FFF74EFF0A2002F053F9002244
:100C600020211046FFF75EFF002240211046FFF7CB
:100C700059FF002201211046FFF754FF00220221F4
:100C80001046FFF74FFF002204211046FFF74AFFEE
:100C9000002208211046FFF745FF0022214610469A
:100CA000FFF740FF002229460120FFF73BFF00220B
:100CB00031461046FFF736FF002204210120FFF7DE
:100CC00031FF002202210120FFF72CFF0121002229
:100CD0000846FFF727FF002239460120FFF722FFD1
:100CE000002261010120FFF71DFF0A2002F00AF92E
:100CF000022220210020FFF7FDFE022240210020D9
:100D0000FFF7F8FE022201210020FFF7F3FE022286
:100D100011460020FFF7EEFE022204210020FFF71B
:100D2000E9FE022208210020FFF7E4FE022221460C
:100D30000020FFF7DFFE022229460120FFF7DAFE3E
:100D4000022231460020FFF7D5FE022204210120B5
:100D5000FFF7D0FE022211460120FFF7CBFE012152
:100D600002220846FFF7C6FE022239460120FFF79D
:100D7000C1FE0222D1040120FFF7BCFE0122910531
:100D80001046FFF7B7FE0A2002F0BCF8F8BDFEB52A
:100D90000121002589050120FFF7B8FE002806D1B2
:100DA0005B4901200870891F48705A494870A800A3
:100DB000594901900958584801229438405DFFF77D
:100DC000B1FE002428460E21484300905248A60058
:100DD000483881593830005DFFF798FE012817D058
:100DE0004B4800990022463808180255641CE4B2AA
:100DF0000E2CEBD3484901980022095846489438F4
:100E0000405DFFF78FFE6D1CEDB2052DCFD3FEBD0B
:100E1000404A0099403A012089180855382029464F
:100E200041433E480F18B8593DA102F0C4FC0028C8
:100E300006D0B8593BA102F0BEFC002804D006E061
:100E4000334901204870D1E731490120C871B859B0
:100E500036A102F0B0FC002802D12D490120887192
:100E6000B85934A102F0A7FC002802D1284901207A
:100E70004871B85931A102F09EFC002802D12449E2
:100E800001200872224A00990120463A8918085523
:100E9000ACE7FEB500200146019002240822284854
:100EA00014F0AEFD1A4846220021463814F0A8FD81
:100EB00009220021164814F0A3FD164846220021FD
:100EC000403814F09DFDFFF762FF019810490E2293
:100ED000504300274639029040180090C05D012819
:100EE0007ED10B484078012846D009480078012877
:100EF000019876D0382148430849BD0046187059FA
:100F000008A102F058FC00286CD01BE0C010004083
:100F10004E6D0020556E00204C610100884200207B
:100F2000464E00004C53686966740000525368696D
:100F3000667400004C4374726C000000455343001B
:100F40003C4200207059C44902F035FC0028DBD037
:100F50007059C2A102F02FFC0028D5D07059C1A150
:100F600002F029FC0028CFD0BB497059083902F0A3
:100F700022FC0028C8D0E2E0BC490020487001985B
:100F800038214843BA49BD0046187059B9A102F04A
:100F900012FC002846D07059B7A102F00CFC0028C2
:100FA00042D07059B5A102F006FC00283ED070591D
:100FB000B3A102F000FC00283AD07059B1A102F0B0
:100FC000FAFB002836D07059AFA102F0F4FB0028DC
:100FD00032D07059ADA102F0EEFB00282ED002E015
:100FE000D2E03BE06EE07059A9A102F0E4FB0028DA
:100FF00026D07059A7A102F0DEFB002822D070593C
:10100000A5A102F0D8FB00281ED07059A3A102F0C0
:10101000D2FB00281AD07059A1A102F0CCFB002805
:1010200016D08CE03A2114E03B2112E03C2110E084
:101030003D210EE03E210CE03F210AE0402108E086
:10104000412106E0422104E0432102E0442100E086
:10105000452194480155641CE4B270E038214843AE
:101060008349BE004518A85982A102F0A4FB0028BC
:101070000ED17F480021001F417001708A48012174
:10108000007814F03BFF89480221007814F036FF05
:10109000A85979A102F08FFB002850D17449012092
:1010A000091F4870087001467F48007814F026FF39
:1010B0007E4D0221287814F021FF0221287814F0B7
:1010C0006DFD3CE06948007A002838D162497059CA
:1010D000103902F070FB002804D172480222017816
:1010E0001143017070595C4902F065FB002804D17E
:1010F0006C480122017811430170705957A102F028
:101100005AFB002804D16748082201781143017076
:10111000705954A102F04FFB002804D16148042209
:101120000178114301704C497059083902F043FBB2
:10113000002804D15B480222017811430170062C7B
:1011400022D25B4802990D18E85DFF281CD0F228D6
:101150001AD001993820414345480818B900405831
:101160003D49083102F027FB002806D13F480179AC
:10117000012904D04079012801D0E95D00E0352142
:1011800048480155641CE4B2012001F0ABFE7F1C0D
:10119000FFB20E2F01D20098A0E60198401CC0B209
:1011A0000190052800D290E630480178012905D148
:1011B0000021017008223B4814F022FC0020FEBDF3
:1011C00070B50C46090409D514F05EFC002801D066
:1011D00014F032FC0120C003604070BDEE262046B2
:1011E0003040FAD0224D2D1F2878FF2806D0A8784D
:1011F000401CC0B2A870192803D00EE0FFF749FECA
:101200000BE06878002810D028480221007814F0FC
:10121000C5FC0020A870FF2028702022EE21E8786D
:1012200014F00EFE2046704070BD01211E48EDE70F
:1012300010B520480AF044FB0D4C241FE070FFF766
:101240008AFCFF20F53001F05DFE19229201EE21AB
:10125000E07814F0F5FD10BD340F00004C477569BF
:10126000000000004C416C74000000004E6D002036
:1012700088420020310000003200000033000000EE
:101280003400000035000000360000003700000088
:101290003800000039000000300000002D00000080
:1012A0002B0000003C420020744200202842002015
:1012B000BD600100C111000010B5C14801780021D6
:1012C0000170012001F00EFE0124A4030321204639
:1012D00001F03EFCBB49CA6A2243CA62502001F0B9
:1012E00001FE10BDF8B50E46B5490746087815460B
:1012F0004022104308700024380602D50121B2486C
:1013000002E0B1480121401C01F0FAFF7806641C9C
:10131000070EE4B2082CEFD30024300602D50121D9
:10132000A94802E0A8480121401C01F0E9FF70062D
:10133000641C060EE4B2082CEFD30024280602D564
:101340000121A14802E0A0480121401C01F0D8FF82
:101350006806641C050EE4B2082CEFD3F8BD70B526
:101360000125AD030321284601F0F2FB01F048FFFF
:10137000002211461046FFF7B5FF914C207800215E
:101380002170207821700321284601F0E1FB8D496E
:10139000C86A2843C862502001F0A4FD207840218B
:1013A00008432070002211461046FFF79BFFFFF70D
:1013B00083FF70BDFFB581B01E4617460546002469
:1013C00005E0324638460299FFF78CFF641CAC42B8
:1013D000F7D3FFF771FF05B0F0BDF8B5054600265D
:1013E000B7007C19EA5DA1786078FFF77BFFA078F1
:1013F000002805D0202801D8002000E01F38A07068
:101400006078002803D0012800D800206070E85DD3
:10141000002803D0012800D80020E855761C3F2E74
:10142000DED3FFF749FFF8BDF8B5694B0020674EE2
:10143000DD271D46044647353118097F002909D0AC
:10144000195C012906D10D21091A89004A199770E2
:1014500054706C54401CC0B20E28EDD300203118DB
:10146000097F00290AD01918897B012906D11B217F
:10147000091A8A0051198F704C70AC54401CC0B2CC
:101480000E28ECD3002108463218127F002A0DD016
:101490004F4A491C1218127FC9B2012A06D12922CB
:1014A000521A93005A1997705470EC54401CC0B2F1
:1014B0000E28E9D30021084632182032927A002AF9
:1014C0000ED0434A491C12182032927AC9B2012A1E
:1014D00006D13722521A93005A1997705470EC545F
:1014E000401CC0B20E28E7D30021394E0846374AC7
:1014F00012182032127E002A0DD032182032491CD8
:10150000127EC9B2012A06D14022521A93005A19FA
:1015100097705470EC54401CC0B20E28E7D32C488E
:101520004730FFF75AFFF8BD10B50C46090408D53F
:1015300014F0AAFA002801D014F07EFA0120C003AA
:1015400011E0E00710D02348007801280DD00028D2
:1015500014D0FFF769FF1C485022401E012100787B
:1015600014F06EFC0120604010BD1948BD2200211E
:10157000BD3814F045FA0023FF2207E01448BD22CD
:101580000021BD3814F03CFAFF23002200213F2047
:10159000FFF710FFDFE710B5FFF7E1FE0C48FC2274
:1015A0000021473014F02CFA0B480AF089F906495B
:1015B0001922491E08709201012114F041FC10BD4E
:1015C0000040004080100040A1430020BD600100A9
:1015D000156E0020844200202915000010B58F49A7
:1015E0008F4805F00FF88F4B102218460521503810
:1015F00005F0DAF910BD8B496839486170473EB58E
:1016000004460079C00727D06088844905F0BEF9F8
:10161000C00721D0002000906088002301221B21F8
:1016200005F0CCFD0290002816D07E48694650385F
:10163000408D88800120C8807A48029968380078F7
:1016400008706088002201A905F09CFB002803D0E7
:101650001B2101A805F0F8FD3EBD10B500240128AE
:1016600002D00224204610BD6E48117868384170BF
:1016700000788842F6D26C480FF0DCFDF2E7694B47
:1016800010B50022683B002809D0012809D0183382
:10169000022809D003280AD00222104610BD18786B
:1016A00000E058780870F8E758890880F5E75D4849
:1016B000623804780C7140784871588D0880588FD2
:1016C000488001208871E8E770B5564D683DA868EC
:1016D000002800D08047FF24E8682D34002800D07F
:1016E0008047A988A14201D8642070BD6888A042C3
:1016F00001D3002070BD2A69002A02D020469047FD
:1017000070BD091A491C0904201A1922890C50437A
:101710004018401E01F0DCFFC0B270BD10B5FFF7ED
:10172000D3FF404968390A78904203D208703E4896
:101730000FF080FD002010BD30B53A48049D683898
:10174000039C41808280083038C030BD70B5049859
:1017500000241D461646002801D00B2070BD4868A5
:10176000427803781002314A184390420CD1FFF7B7
:10177000ABFF2C4968390A78904200D208700120EA
:101780002880087830700BE0294A904207D1022067
:1017900028800246C968304614F03AF800E00A246E
:1017A000204670BD7CB54C681546627824781202DC
:1017B0002243204C069EE24208D10122019200966B
:1017C0002A4604F085FF040003D000E00A242046E6
:1017D0007CBD687829780002084312496839496954
:1017E0000029F4D0002802D001208847EFE702202A
:1017F000FBE710B504460A48401E84420DD001297B
:1018000007D0022909D1012120460FF07BFD0028D5
:1018100003D10249204604F0F5FE10BD586F0020A8
:10182000FFFF00000C440020FF150000192A0000F3
:1018300008290000FED6FFFF10B56E4B10221321C1
:101840006D4805F0B1F810BD10B50024134600280E
:1018500002D00224204610BD67480A4619460938BE
:1018600013F0D6FFF6E770B50D46002403000AF02A
:10187000D9F909060A1014181C2024282C005E49E6
:101880000822093901E05D490D22284613F0C0FF06
:101890001CE05A490E220D31F7E7584912221B313C
:1018A000F3E7564912222D31EFE7544912223F3116
:1018B000EBE7524912225131E7E750490E226331DA
:1018C000E3E74D4907221039DFE70224204670BDC7
:1018D000F8B5496894464A78097817020F43069884
:1018E000474A11210025079CBE1A091A974244D085
:1018F00009DC444ABA1813D0012A1DD0022A26D086
:10190000032A08D12FE0012E41D0022E49D0032E08
:1019100051D0292E5BD0002018800A252846F8BD1A
:10192000082856D20821091AA14200D80C4632498B
:10193000A2B21A80093957E00C284AD20C21091AA0
:10194000A14200D80C46A2B21A802C494CE00D28C6
:101950003FD20D21091AA14200D80C462749A2B254
:101960001A800D3140E0112833D2A14200D80C4634
:101970002249A2B21A801B3136E0112829D2A14295
:1019800000D80C461D49A2B21A802D312CE0112836
:101990001FD2A14200D80C461849A2B21A803F318A
:1019A00022E0112815D2A14200D80C461349A2B258
:1019B0001A80513118E00E280BD20E21091AA142CB
:1019C00000D80C460D49A2B21A8063310CE00728FA
:1019D00001D30725A2E70721091AA14200D80C4626
:1019E0000549A2B21A8010390918604613F010FF99
:1019F00094E700005C4500202C4400208861010031
:101A0000272A0000DDD5FFFF7047014610B5FA48D0
:101A10000129807904D0022901D114F06FFA10BD98
:101A2000F64A022114F00CFA10BDFEB5064600205D
:101A30001746F14C0D4603460A4600901B212089AB
:101A400005F0BCFB0290002813D068468680C58054
:101A50002A463946029813F0DBFE002201A92089AC
:101A600005F090F9040005D01B2101A805F0ECFB5E
:101A700000E013242046FEBD30B5DF4A0446E04BAB
:101A8000D068D2791B780BE00579A54205D145795C
:101A90008D4202D185799D4205D0521ED2B20830C6
:101AA000002AF1D1002030BDFFB581B015460E46A9
:101AB0000746FFF7E1FF04001CD06088694605F087
:101AC00047F8002816D0C168CB48008904F05EFFB3
:101AD000C0070FD020882946049AFFF7A6FF0028E8
:101AE00008D1C8482A46077046708570C01C049902
:101AF00013F08EFE05B0F0BD70B5BF4E0C46B07948
:101B0000090408D513F0C0FF002801D013F094FF9A
:101B10000120C00323E0E10707D0B74A2032114675
:101B2000083903F0F1FE012019E060070DD5307887
:101B3000042808D1B4A00AF04DF8B078002802D1EA
:101B4000308903F0DBFF042009E0A00709D5FFF787
:101B5000E5FDAA4A0221B07914F072F90220604032
:101B600070BD200725D57078082125464D400028F6
:101B70001BD030797179884201D1002309E00B2113
:101B8000401C01F08FFD31710B2041439D480B300B
:101B90000B18002B05D09A7859781878DB1CFFF7C2
:101BA00083FF30797179884201D1284670BD204683
:101BB00070BD002070BD38B5984809F081FE8E4C8C
:101BC0006946A0710120087001466A46944803F0F6
:101BD000ADFA0025ED43284605F03EFB284604F00B
:101BE000C7FCFFF729FEFFF7F9FC00F0A1FB8D48C9
:101BF000FFF701FD8C4800F0A8FB0121A07913F04C
:101C0000CDFF38BD7C4A1161506170477A4AD1607E
:101C1000D071704708B53021032004F0CBFB502170
:101C2000042004F0C7FB3C21012004F0C3FB012089
:101C30006946087001466A467C4803F099FE08BD73
:101C4000F8B50E466C49074608781C461546042828
:101C50001AD0022826D000F06BFA002820D02021CC
:101C6000032004F0A7FB3021042004F0A3FB05218E
:101C7000012004F09FFB01206946087001466A4676
:101C80006A4803F075FE0DE0487800280AD008790C
:101C90004979884206D131463846FFF705FFF8BD3D
:101CA000FFF7B8FF23462A463146384600F04BFA84
:101CB000F8BD08B550480178042908D000206946CD
:101CC00008706A460121594803F052FE08BD008998
:101CD00003F014FF08BDF8B50024002802D0022448
:101CE0002046F8BD002901D01824F9E7454F79783E
:101CF0003878FFF7C1FE05001CD0BA78F91C002324
:101D0000082A09D8002004E00E5C9E4204D1401C41
:101D1000C0B29042F8D308E00021F81C13F070FE26
:101D2000B9782888FA1CFFF780FE0B22002135487D
:101D300013F066FE304D2878042802D1288903F07C
:101D4000DDFE002068712871024601464120000135
:101D500003F0ECF9C4E7022070470A46014610B5CB
:101D60002548008902F0C8FF10BD10B5224902467F
:101D7000234BC868C9791B7808E00488944202D1D3
:101D800084799C4205D0491EC9B208300029F4D19B
:101D9000002010BDFEB517464A681D4654781278DB
:101DA000089824020026099B1443002804D0204AE6
:101DB000944201D00B20FEBD1D4A921C94420AD0D1
:101DC0001B4A293A944206D0194A193A944202D041
:101DD000521C944231D14889FFF7C7FF002829D00F
:101DE00001970095044A4179126900791568012329
:101DF0002246A847064653E070450020983A000066
:101E0000A6450020686F00206869642069646C65DD
:101E1000206576656E742E2E0A000000F91A000007
:101E2000140400000B1A0000091A0000050300004A
:101E30004B2A00000020288032E0DA4A94420ED17A
:101E4000D94A1288904201D3072629E0121A9A42F1
:101E500000DD1A4692B22A80C96809181DE0D148EF
:101E6000401E844204D104202880C968024614E040
:101E7000CE4A022094420DD0CA4AD21C944205D1C7
:101E800001202880C8680078387009E0C74A521ECF
:101E9000944205D12880C9680222384613F0B8FC64
:101EA0003046FEBDFFB583B084460C98002416462C
:101EB0000F46002802D00B2007B0F0BD78684178AB
:101EC00000780D020543B748801C854203D0B54811
:101ED0001938854211D17889FFF747FF002859D07A
:101EE00006A901960091B24A4179126900791468F5
:101EF00000232A46A04704464CE0AA49AC486A465B
:101F0000491C0069138B8D420AD1012B41D13178D4
:101F1000002901D0012944D100294AD0012148E0FB
:101F2000A249891F8D422ED101210C980191009068
:101F300032463946604604F0CBFB04002AD1707863
:101F4000317802020A439A497B89C868C97905E059
:101F500047889F4205D0491EC9B208300029F7D1F1
:101F60000020002816D006A901960091012A08D069
:101F700003238F4A41791269007916682A46B047CF
:101F800008E00223F5E78749C91C8D4202D1012BE5
:101F900002D00D2420468FE73178002903D0012993
:101FA00001D08024F6E7FA6811703178002904D056
:101FB0000321426808469047ECE70221F9E7F8B5AB
:101FC0007B4E0421B07913F099FF01213089FFF78E
:101FD00010FC0121308900F023FA37897548F56833
:101FE000874212D0F4790EE06888002808D069464C
:101FF00004F0AEFD002803D0C168384604F002FBAF
:10200000641EE4B20835002CEED100206A497070DD
:1020100001240C70B07001460B22684813F0F0FCEC
:1020200000F086F8002816D070690079800712D574
:10203000A021032004F0BEF9A021042004F0BAF985
:102040000021012004F0B6F9684604706A460121B7
:102050005B4803F08DFCF8BDF8B50027544D0E46E3
:102060000446042803D0287804280BD012E0708995
:1020700028816F70684607706A460121504803F056
:1020800077FC07E0FFF79BFFE878042802D1FFF711
:10209000C1FDEF702869002805D0C268002A02D06F
:1020A0003146204690472C70F8BD13460A4610B5BD
:1020B000014644A009F08EFD10BD10B501203C4C36
:1020C000002904D0012904D0022909D00EE0A07013
:1020D0000CE00021A170002A00D16070E27005E0E0
:1020E000002A03D16070208900F044F920796179D9
:1020F000884206D06078002803D00821A07913F028
:102100004DFD10BD38B50D4629490969002905D096
:102110008C68002C02D02946A04738BD6946324859
:1021200002F03AFC00212846009A02F0E5FD38BD95
:1021300008B50020694608702B480E3002F02CFCD0
:102140006946087808BDFFB581B016460746FFF717
:10215000EFFF002824D0164C0B216079401C01F0C1
:10216000A1FA617120790D46814204D10B21401CF6
:1021700001F098FA21710B204543104832460B308C
:1021800047552818029941708670C01C049913F0B5
:102190003FFB6078002803D00821A07913F0FEFCF3
:1021A000A8E400004B2A00009C45002008290000FC
:1021B00070450020FEFF0000A6450020686F00204B
:1021C00005030000557064617465202564202D208E
:1021D000496E742030782578202D204C6174656E0E
:1021E00063792025640A000007040000F8B54B4C11
:1021F0004949204604F006FA47492046103104F0C8
:1022000001FA474B10221A21464804F0CDFB0090FA
:102210004448C1690220FFF732FA42493E48093971
:102220000F78383807714E784671C9314A89028073
:10223000498B41803B4901228271C91F0D7805738A
:10224000374B4C784473A03B59890181002141816F
:102250008273077546755B8F0382314B603B5E89E5
:1022600046828175057744775B8D03832D4C4183CE
:102270008177641F0346257820331D7164785C7173
:10228000274C203C64890484418401469A7128319A
:102290000320FFF7F4F9204907203839FFF7B6FC8F
:1022A0000098F8BD30B5204D00205219039C1F4DF9
:1022B00013D01B2A04D1022903D0032908D00A20F5
:1022C00030BD012B02D12178297030BD0D2030BDE9
:1022D000012BFBD12178A97030BD012BF6D12178DB
:1022E000697030BD70B5104C012512190F4C04985F
:1022F000002A0FD000261B2A03D1022903D003296C
:1023000003D01E8004E0217800E0A17801701D80D8
:10231000002070BD6178F9E724700020FFFF000005
:1023200054470020B4450020CED5FFFFA84500202B
:1023300010B54649464804F065F9464B1022184648
:102340000621603804F030FB10BD4249683908604E
:102350007047022070473F4B02460020643B002A32
:1023600003D0012A03D0022070471A8800E05A885F
:102370000A8070473EB50446344904F007FBC007A5
:102380001ED000252B4601221B212046009504F07B
:1023900015FF0290002813D02E4869462038408B44
:1023A00088800120C88002980022057001A920467B
:1023B00004F0E8FC002803D01B2101A804F044FF2E
:1023C0003EBD00207047FEB5089E00241546002E35
:1023D00001D00B20FEBD4F687A783F7812023A4355
:1023E0001D4FBA420ED1042B01D00D2416E0C8684F
:1023F0001A46294613F00CFA164901206839096873
:1024000088470BE0154CA24207D1012201920096A9
:102410002A4604F05DF9044600E00A242046FEBD89
:1024200010B504460A48401E84420DD0012907D049
:10243000022909D1012120460EF064FF002803D1B2
:102440000249204604F0DEF810BD00004470002070
:10245000FFFF0000D44700204F2A0000022900009F
:102460000448804704480047FEE7FEE7FEE7FEE732
:10247000FEE700007D2400009100000010B5FF4839
:1024800057210170A8210170FC4A8821403A11812E
:102490000189042211430181002101700A2000F00A
:1024A00021FD012000F06BFC10BDF0B5F34EF34DA3
:1024B00004275722A824203E403DF049030009F09C
:1024C000B1FB0D080E161B1F24282C32373C414649
:1024D0002F000A700C70F07BFB22104003E00A70A2
:1024E0000C70F07B3843F073C820288118E00A7024
:1024F0000C705120C000F8E70A700C70E048F4E757
:102500000A700C7081208000EFE70A700C70882040
:10251000EBE70A700C700220E7E70A700C702F815D
:1025200000200870F0BD0A700C7093208000DCE77A
:102530000A700C70D2484D30D7E70A700C709520A5
:102540008000D2E70A700C704B20C000CDE70A7003
:102550000C70CB485C30C8E7C84810B540380089DB
:10256000C1B20B069A0FC748022A05D0012A04D02F
:102570009A0F06D07D20000210BDC906C90EC248C0
:1025800001E0C906C90E01F08DF810BDBB4A572104
:102590001170A8211170B94940394B1500280889DC
:1025A00004D0184308810020107070479843F9E761
:1025B000B24A57211170A8211170B0492039002862
:1025C000C87B05D004231843C873002010707047DF
:1025D000FB231840F8E7A9498A7B800792089200FC
:1025E000800F024357200870A82008708A730020CB
:1025F00008707047A1498A7B8F231A40000102436B
:1026000057200870A82008708A730020087070474F
:102610009A4A203A917B800789088900800F0143FC
:10262000964857230370A82303709173002101700B
:102630007047924A203A917B0907090F0001014334
:102640008E4857230370A8230370917300210170F3
:102650007047FEB58948002740380089C0B201069E
:102660008A0F022A4CD00124A403012A4CD0890FDE
:1026700056D00524002000902005000D01907F48D1
:102680002038848900267D49572230460A70A822C6
:102690000A7001238B74794957220A70A8220A70A4
:1026A000764A203A948100220A708A7C9207FCD5EF
:1026B0000A8A8A7C9207FCD48A7C9207FCD5098A14
:1026C000019A7F1C891A0DB2FFB2002D37D029461E
:1026D000714305D5012834D0411C32D0002830D0B8
:1026E0002E4602943046009900F0F2FF00B2211A03
:1026F0008CB202998C4249D1002D45DD641C44E026
:102700000220624CC043B6E7C506ED0E294660487C
:1027100000F0C8FF0019C40B2320C043401B09E090
:10272000C506ED0E29465B4800F0BCFF0019C40B3E
:10273000A81C4042294600F0CBFF00B29BE70020D6
:10274000FEBD002E03DA761EF04306B202E06D1ED7
:10275000E84305B2B5420FDD484857210170A82172
:102760000170464A0299203A9181002101707D2032
:10277000C0007043019903E07D20C000684311460A
:1027800000F0A6FF80B2FEBD641EA4B2142F82D357
:10279000FF20FEBDFFB581B00C460746054600266A
:1027A0001AE0FF219131681E00F092FF00290AD043
:1027B0006421681E00F08CFF002907D00320A907C0
:1027C0008007C14202D1FF206F3001E0FF206E3050
:1027D00080196D1E86B2ADB22F488542E1D8002522
:1027E000012C25D9032C05D0A01E062816DDE007F4
:1027F00018D115E0FF219131384600F053FF002930
:102800000AD06421384600F04DFF002901D0B807F6
:1028100002D000201C3006E00120FBE7E00701D0D9
:102820001E2000E01F208019641E86B2A4B2D7E7E4
:10283000039818213018401E84B2049800F032FF2B
:10284000E120C00041430A981E22504309180B980A
:102850004008081881B20B98C00701D00120C003BE
:102860000A04024305482038C17B6B46C909C901E7
:102870001970C17B1B78C909C9010FE040100040E5
:10288000020200000048E80100389C1C13130000FD
:1028900000180D8F00688909E40700009942E3D110
:1028A000694609780029DFD0A64957230B70A82371
:1028B0000B70A44B403B5C63447C802634434474DF
:1028C0005A63427C40231A4342740D7005B0F0BD38
:1028D000FFB507469B4883B04038C06B0E46840462
:1028E0009848A40C2038418B008B01224900D20368
:1028F000904201D3012000E0002008180090924887
:10290000388010E00199002925D06421284600F084
:10291000C9FE002901D0A8071DD0FF206E30201A63
:102920006D1C84B23D803D88FF219131284600F026
:10293000B9FE0191002911D06421284600F0B2FEB1
:10294000002901D0A80709D0FF206E30A042D9D9B4
:102950000020308049E0FF206F30E0E7FF206F303B
:10296000F4E73588012D04D0062D18D9E8071AD1CF
:1029700017E03888FF219131019000F093FE002983
:102980000BD06421019800F08DFE002902D001983F
:10299000800702D000201C3006E00120FBE7E8079A
:1029A00001D01E2000E01F20201A84B26D1CA8B2A6
:1029B0003080012804D0062817D9C0071AD117E0A3
:1029C0003888FF210546913100F06CFE00290AD0BD
:1029D0006421284600F066FE002901D0A80702D035
:1029E00000201C3007E00120FBE73078C00701D051
:1029F0001E2000E01F20A042B3D93088641C401C78
:102A000030800598E12104800901009800F04AFE19
:102A1000069A108008463C2100F044FE0C9908807C
:102A20003C21009800F03EFE0D98018007B0F0BDFB
:102A3000444908B52039CA7B6B46D209D2011A70C5
:102A4000CA7B1B78D209D2019A42F4D16A46127825
:102A5000002AF0D03B4A57231370A8231370394B38
:102A6000403B5863487C4023184348740020107052
:102A700008BD34494039886B8A6B8242FBD170476C
:102A800010B5304A57211170A82111702D492039F5
:102A90004B7CE82423404B744B7C1024204303439D
:102AA0004B740020107010BD00B50346FFF7E1FF26
:102AB0002649C018884201D9494240180104090C2E
:102AC00002D00121090440181E4957220A70A82289
:102AD0000A701C4A403A50631A482038427C20232E
:102AE0001A4342740020087000BD0021002802D063
:102AF000012802D002E0202100E0102111485722D5
:102B00000270A82202700F4A203A537C8B43537400
:102B10000021017070470B4920390028087C02D041
:102B2000402108407047C009C0017047054920395D
:102B3000002804D0012801D11020087470472020FB
:102B4000FBE7000040100040E40700000000C0A8C0
:102B500000B5524A0B0009F065F805040710161974
:102B60001F00516B81430AE0516B81435163116B2C
:102B700001431163116A81430DE0516B01435163BD
:102B8000116B8143F5E7516B814301E0516B0143C8
:102B90005163116A0143116200BD404A00B54032E1
:102BA0000B0009F03FF80504071016191F005169C2
:102BB00081430AE051698143516111690143116107
:102BC000116881430DE051690143516111698143ED
:102BD000F5E75169814301E0516901435161116891
:102BE0000143116000BD2D4A002906D0012907D0FC
:102BF000022908D0032913D10CE0918A814304E013
:102C0000918A814308E0918A01439182D16A01430C
:102C1000D16205E0918A01439182916A01439162F8
:102C20009083118A0143118270471C4B1B4A403329
:102C3000002906D0012907D0022908D0032913D181
:102C40000CE0D18A814304E0D18A814308E0D18A33
:102C50000143D182D9680143D96005E0D18A01439B
:102C6000D182996801439960D083518A014351828E
:102C700070470A4A803A0028108B01D0084300E0D0
:102C8000884310837047054A803A0028508B01D052
:102C9000084300E0884350837047000080100040E4
:102CA000F8B5624D5726614CA827203D00282670B4
:102CB000277028880ED02115084328800A2000F0AC
:102CC00011F9267027702888611508432880002094
:102CD0002070F8BD032149028843F7E7F0B5534C53
:102CE00057261C228B07514DA8270A409B0F403CBA
:102CF00000282E702F7010D0080603D5E07BFD2130
:102D00000840E073A07A1043A07248482038C17B85
:102D10001943C17300202870F0BD080603D5E07B7D
:102D200002210843E073A07A9043A0723F48203804
:102D3000C17B9943EDE730B53C4C57233B4AA8256E
:102D4000403C002813701570E06804D08843E060B0
:102D50000020107030BD0843F9E730B5334C5723DD
:102D6000324AA825403C002813701570A07B04D07F
:102D70000843A0730020107030BD8843F9E7F8B510
:102D80002A4D5726294C0021A827203D00282670CF
:102D900027700ED00120687128710020207001205A
:102DA00000F0A0F8267027700D20287100202070F8
:102DB000F8BD29712170F8BD1D48016904229143B5
:102DC000016130BF7047194B57241C70A8251D7036
:102DD00016494039887B0822104388730920134E16
:102DE0000003203E308000271F70886B8A6B824270
:102DF000FBD1104A0A30904201D952428018020495
:102E0000120C02D0012212048018302232741C707D
:102E10001D7048632F2070741F701C701D7005207A
:102E200008811F7040BF20BF20BFFEE74010004058
:102E300000ED00E00000C0A83C49062805D0497913
:102E40000122824011400846704708780821084056
:102E50007047364857210170A821017081790122FD
:102E60001143817100210170704731490968016087
:102E700000202F49C0438031086070472C4908600A
:102E800070472C4880697047284957220A70A82249
:102E90000A700028887905D0042210438871002028
:102EA00008707047FB221040F8E7204957220A704B
:102EB000A8220A700028887905D002221043887160
:102EC000002008707047FD221040F8E7174857218E
:102ED0000170A821017081791022114381710021B4
:102EE0000170704700220AE0022101E000BF00BF2C
:102EF0000B46491E89B2002BF8D1521C92B2824275
:102F0000F2D3704770B500247D260546F60004E034
:102F10003046FFF7E7FF641CA4B2AC42F8D370BDA3
:102F20000549CA7A082AFCD0087270474010004050
:102F300000E100E000E000E00034004010B504468D
:102F4000FFF70AFB0A214843C008214600F0AAFB0C
:102F50000A21401D00F0A6FB2249888110BD10B552
:102F6000E1204002FFF7EAFF1E488721817003211C
:102F7000C170402141700121817310BD19498A78C7
:102F80009206920E800102438A707047154A00280B
:102F9000507806D00843507010780821084310700C
:102FA00070478843507070470E49802048707047C2
:102FB0000C4A07E0D37A082B04D003781372491E19
:102FC00089B2401C0029F5D1704701460020054A0E
:102FD00004E0137A401C0B7080B2491C937A002BDA
:102FE000F7D170470034004010B523480023037028
:102FF000CC210173417321490A8802828A88828226
:103000000A890283898981831B49022420318C70BB
:1030100012228A718A728A738C74C370292101709A
:10302000FF21817116494A8B80231A434A838121EB
:1030300041700721817010BD0F49203108718879D6
:1030400080088000887170470B4920310872887AA7
:103050008008800088727047074920310873887B98
:103060008008800088737047034920310874887C89
:10307000800880008874704700800040E44700208A
:1030800000100040F0B5564A0021157E547E0126FE
:103090001676507E0823184350769676907EC007A9
:1030A000FCD19676937EDB07FCD1978B4D4B401C71
:1030B000BB43591880B21028F3D308310809517E58
:1030C000F72319405176157654760121C902081A62
:1030D00000B2F0BD028800290DD0012911D00229CB
:1030E00015D0032906D140494A4391013F4A891826
:1030F000090C01807047F92189004A4391013C4A3B
:10310000F5E73949491E4A4391013A4AEFE7364902
:103110004A439101384AEAE780010901C01C08438B
:103120002F494876704780010901401D08432C490A
:10313000487670472A48C17E80221143C1760F210C
:10314000017621214176704725480E210176032121
:1031500041767047224823214176082181767047C5
:103160001F4801218176817EC907FCD1808B000533
:10317000000D70471A4908228A76C877887EC006F3
:10318000FCD4888B0005000D704770B51B4D4021A5
:10319000AB6B9AB21C0C144B3E335843C00A03016C
:1031A000002C05D09001203318182201801A13E05A
:1031B000686B040C010A09190918050EC9B28D4281
:1031C00001D0FF2070BD1146E4B2520800049A18E5
:1031D0004C431219000B101A00F07AFA70BD00006F
:1031E00040100040FF0F0000E60300008014340090
:1031F00040B0370080C2370040213600000604008E
:1032000094480421C170022101706021017041784D
:1032100010221143417041784908490041707047BC
:103220008C4902284A7804D0BF231A404A70C870DB
:10323000704740231A43F9E710B58649F722202347
:1032400000280ED0DF2401280ED0082202280ED03C
:10325000032805D10878104308704878204048704A
:1032600010BD0878104004E008781040F4E70878B2
:103270001043087048781843F1E776490A78EF233D
:103280001A400A70087188794006FCD57047714869
:103290000178EF2211400170FF2101718179490607
:1032A000FCD50079704710B56A4A1378EF242340A3
:1032B000137091810123937107E0D379082B04D215
:1032C00003781374491E89B2401C0029F5D1D079C6
:1032D0000028FCD110BD10B55E4A1378102423439A
:1032E000137091810123937107E0D379002B04D0EF
:1032F000137C491E037089B2401C0029F5D110BD12
:1033000010B5544A1378EF242340137010834018EB
:103310009083918109209071507801210843507069
:103320009079C007FCD0507840084000507010BD24
:1033300010B5484A137810242343137010834018A3
:103340009083918109209071507801210843507039
:103350009079C007FCD0507840084000507010BDF4
:103360003C480221017081210170417810221143F3
:103370004170704737480178102211430170C179BC
:103380000029FCD0007C704732490A78EF231A40AC
:103390000A700874C8790028FCD1704710B52D4A0E
:1033A00013781024234313700123937107E0D3791A
:1033B000002B04D0137C491E037089B2401C0029E5
:1033C000F5D110BD10B5234A1378EF2423401370B4
:1033D0000123937107E0D379082B04D20378137487
:1033E000491E89B2401C0029F5D1D0790028FCD1B2
:1033F00010BD10B5174A137810242343137010839F
:1034000040189083918109209071507801210843E0
:1034100050709079C007FCD0507840084000507040
:1034200010BD10B50B4A1378EF242340137010839E
:1034300040189083918109209071507801210843B0
:1034400050709079C007FCD0507840084000507010
:1034500010BD00000040004010B5FFF7FAF8022848
:1034600001D9FFF7F6F810BDF8B5534CE77E267E7C
:10347000657EFFF75FFEA07E01210843A076A07E57
:10348000C007FCD1A08BE77626766576F8BD30B50F
:103490008DB0122249A14E4812F0ACF9002841D05B
:1034A000454857210170A82101705121424AC900A5
:1034B000403A1181002101704748464A4261474A1B
:1034C0000724D3691B021B0A45042B43D361816186
:1034D000046101690222914301613422002168469E
:1034E00012F08EFA3E480090012040036946888021
:1034F0001B20C873052008740120487414208874A8
:10350000FB20800202900D2008773648089036484C
:103510000A90084601F0FAF8010007D033A008F03D
:1035200059FBFEE739A008F055FBFEE70DB030BDB2
:1035300070B50C4609040AD512F0A6FA002801D08D
:1035400012F07AFA01212046C903484070BDE00715
:1035500002D00120604070BD314DA00405D501F0BE
:1035600051F901262F4A760308E060040DD52EA0FC
:1035700008F030FB7D22D2010126B60331462878BF
:1035800012F05EFC2046704070BD002070BD10B58A
:10359000264808F095F9224C207000F063F862B6D6
:1035A000204A01214903207812F04AFC10BD10B5D1
:1035B00000F0F0FF10BD00004010004043483537D8
:1035C000785F424C455F4C49425F56312E380000CF
:1035D00064620100FEFFFF0000E000E004ED00E097
:1035E000C84A0020832E0000693400004C49422064
:1035F000696E6974206572726F7220636F64653AD8
:10360000202578202E2E2E0A0000000068656164B7
:103610002066696C65206572726F722E2E2E0A000C
:10362000F447002000EE02002A200000313500009F
:103630000104090C02D0012109044018164957223F
:103640000A70A8220A7014494039486313490020BF
:103650000860704710493020203908740F49012054
:10366000086070471CB50C4857210170A8210170F3
:1036700009492039CA7B07231A43CA730021017004
:1036800000910B460122019111460548FFF782F88F
:10369000002008F049FA1CBD40100040F847002007
:1036A000E407000030B50B4601460020202201242B
:1036B00009E00D46D5409D4205D31D469540491B66
:1036C0002546954040191546521E002DF1DC30BDAF
:1036D00070B500242546002801DA01244042002963
:1036E00001DA01254942FFF7DDFFAC4200D040423C
:1036F000002C00D0494270BDF0B51FB486B0002048
:103700000090019002900698069980B20490079864
:10371000090C02040014114307900027089D099822
:1037200006913E463C4603900398A9B20204000C61
:10373000039004982D0C154348430021224600F0C5
:1037400018F8C719714110340E46402CECDB38468E
:10375000029A00F00EF8009A019B801800905941DF
:1037600002980191103002904028CCDB00980BB0F9
:10377000F0BD10B5202A04DB0146203A914000201C
:1037800010BD914020239C1A0346E340194390400A
:1037900010BD03460B439B0703D009E008C9121F65
:1037A00008C0042AFAD203E00B780370401C491CBD
:1037B000521EF9D2704710B5002200E0521C835C03
:1037C0008C5CA34201D1002BF8D1D8B2E1B2401AEF
:1037D00010BDF0B51FB40646002082B00546402457
:1037E000019100901BE0019922460F46304600F0FF
:1037F00033F8049A059B801A994110D31046194654
:103800002246FFF7B6FF361A8F4101972246012064
:103810000021009FFFF7ADFF38184D410090204672
:10382000641E0028DFDC019B00982946324607B061
:10383000F0BD0000064C0125064E05E0E36807CC0C
:103840002B430C3C98471034B442F7D3FCF724FCCC
:10385000A0640100D064010010B5202A04DB0846F2
:10386000203AD040002110BD0B46D340D040202448
:10387000A21A91400843194610BD70B58C180578FE
:10388000401C6B075B0F01D10378401C2A1106D145
:103890000278401C03E006780E70401C491C5B1E39
:1038A000F9D12B0705D40023521E0DD40B70491CEF
:1038B000FAE70378401CCB1A921C03E01D780D70C8
:1038C000491C5B1C521EF9D5A142D8D3002070BD03
:1038D00003B40148019001BD6340002003B40148D6
:1038E000019001BDB940002003B40148019001BD21
:1038F0009541002010B5124C2068C0051FD503204B
:10390000206000200821401C2268C0B20A432260C7
:103910000EE02268920510D4222807D90948026BCC
:10392000002A0AD001210320904706E0401CC0B2C3
:103930002268D205EDD50028E5D10020206010BD19
:1039400080C300407070002070B514460D460646D6
:10395000FFF7D0FF2D4803681968062291431960CC
:10396000316899627168D962B1681963F168596305
:10397000296899616968D961A9681962E968596219
:1039800059680222914359605D6801210D435D60D1
:103990001D680D431D6000E000BF59688907FBD515
:1039A0005968914359609969217001688969090AC8
:1039B000617001688969090CA17001688969090E43
:1039C000E1700068C1692171C169090A6171C16949
:1039D000090CA171C169090EE171016A2172016AC4
:1039E000090A6172016A090CA172016A090EE17289
:1039F000416A2173416A090A6173416A090CA17322
:103A0000406A000EE073002070BD0000404A0020B4
:103A100070B50C460546FFF76DFF28480268106830
:103A200020218843E907890E084310608034E06C48
:103A30001061206D5061E0699061206AD061606A18
:103A40001062A06A5062E06A9062206BD062606B84
:103A50001063A06B5063E06B9060206CD060D16805
:103A6000236C1748994204D0026B002A1ED02021F3
:103A700007E0916AE36A994206D0026B002A15D0EA
:103A800021210320904711E0D169236A994204D093
:103A9000026B002A0AD02221F3E71169E36C9942F4
:103AA00006D0026B002A01D02321EAE7012070BD75
:103AB0001068402108431060002070BD404A00207B
:103AC0007070002070B50C460546FFF713FF2848BC
:103AD0000268106820218843E907890E08431060B6
:103AE0008034606C1061A06C5061E0699061206A64
:103AF000D061606A1062A06A5062E06A9062206BD6
:103B0000D062606B1063A06B5063E06B9060206CC0
:103B1000D060D168236C1748994204D0026B002A08
:103B20001ED0102107E0916AE36A994206D0026B29
:103B3000002A15D011210320904711E0D169236A92
:103B4000994204D0026B002A0AD01221F3E71169CE
:103B5000636C994206D0026B002A01D01321EAE778
:103B6000012070BD1068402108431060002070BD26
:103B7000404A00207070002010B504F0BFFE0249DA
:103B800003F089FC002010BD060400000148006E0F
:103B9000704700008872002008B5002808D000296E
:103BA00006D0002A04D01088002801D0002008BDCB
:103BB0001220694608706A460121034803F067FC39
:103BC0006946087808BD0000350C000008B504F00F
:103BD000BBF9694608706A460121034803F057FCA7
:103BE0006946087808BD00002720000008B504F0E9
:103BF000F5F9694608706A460121034803F047FC5D
:103C00006946087808BD00001120000008B504F0DE
:103C10002DFB694608706A460121034803F037FC12
:103C20006946087808BD00002920000008B504F0A6
:103C300023FB694608706A460121034803F027FC0C
:103C40006946087808BD000010200000FEB508AFE6
:103C500070CF6F4670C704F035FB0446024903F08D
:103C60001AFC2046FEBD00001320000008B504F039
:103C700035FE694608706A460121024803F007FCD8
:103C8000002008BD0E20000038B5044605F0B1F84C
:103C9000694608704C70200A88706A460321024801
:103CA00003F0F5FB002038BD1B20000038B50446AA
:103CB00005F0B8F8694608704C70200A88706A46AA
:103CC0000321024803F0E3FB002038BD1A20000066
:103CD0000EB500A8013005F008FC694608706A4678
:103CE0000921024803F0D3FB00200EBD182000007C
:103CF00008B500A8013004F0FDFF694608706A4667
:103D00000421034803F0C3FB6946087808BD00009E
:103D10000220000038B5044605F042FC69460870F0
:103D20004C70200A88706A460321024803F0AFFBFA
:103D3000002038BD212000007FB5044608A861C8D6
:103D4000009002960195204605F042FC69460873F2
:103D50004C73200A887303AA0321034803F097FBDE
:103D6000002004B070BD00002020000008B505F060
:103D700071FF694608706A460121034803F087FB1A
:103D80006946087808BD00002D20000008B505F040
:103D9000FFFF694608706A460121034803F077FB7C
:103DA0006946087808BD00000820000008B505F045
:103DB00077FF694608706A460121034803F067FBF4
:103DC0006946087808BD00000A200000F0B585B0FB
:103DD0000AACF0CC03976F4670C705F0F9FF69464F
:103DE000087404AA0121034803F051FB6946087CCA
:103DF00005B0F0BD0620000008B506F073F869466E
:103E000008706A460121034803F041FB69460878BF
:103E100008BD00000520000008B506F0A1F86946BD
:103E200008706A460121034803F031FB69460878AF
:103E300008BD00002E20000008B506F0A7F869466E
:103E400008706A460121034803F021FB694608789F
:103E500008BD00000C20000008B506F0D9F869463E
:103E600008706A460121034803F011FB694608788F
:103E700008BD00000920000010B506F030F9024925
:103E800003F009FB002010BD1920000010B505F05B
:103E900009F810BD1CB500A8013005F035FB6946D6
:103EA00008706A460721034803F0F1FA694608786A
:103EB0001CBD00000910000010B505F0DFFD10BDAD
:103EC0000A7802708A7842704A88120A82700979E8
:103ED000C170042070470A7802700988090A41708D
:103EE0000220704708888004000C70478A780270AE
:103EF00088780128088804D012214843401C80B2E9
:103F000070478000FAE70A7802700A88120A427045
:103F10004888801C80B270470A7802700A88120AAA
:103F200042708A7882704A88120AC2708888001D9E
:103F300080B27047088870478A780270088849887C
:103F40004843401C80B270478A78027008884988CC
:103F50004843401C80B27047088870470888704703
:103F60007FB515460446022901D0102903D1022B42
:103F700004D0102B02D0002004B070BD994202D1B1
:103F80000A46294607E01029694607D000F00EF8D6
:103F900010226946284611F02DFCEDE7104600F08E
:103FA00005F8102269462046F5E7000070B50C467A
:103FB00005000CD0002C0AD010220649204611F032
:103FC00027FC2878207368786073012070BD00207A
:103FD00070BD00001C63010008B500220B46009272
:103FE0000122024908F0B8F808BD0000C13E0000F7
:103FF00008B50A88172A07D300220B46009203222D
:10400000024908F0A9F808BD022008BDD73E00000B
:1040100008B500210B461922009108F09DF808BD53
:1040200038B5054608880C4600280DD06068002881
:104030000AD0012111F09AFB009023460722034980
:10404000284608F089F838BD022038BDE53E00005A
:1040500038B5054688780C46012801D0022810D1D1
:10406000208800280DD0606800280AD0022111F0B5
:104070007DFB0090234605220349284608F06CF892
:1040800038BD022038BD0000ED3E0000064910B5E5
:10409000884202D103F0D4FD10BD0DF083F8002852
:1040A000FAD1172010BD0000FEFF000038B505460C
:1040B0004A6800200C46002A03D00321104611F064
:1040C00055FB009023461D220249284608F000F8BF
:1040D00038BD0000073F000038B505464A6800209B
:1040E0000C46002A03D00321104611F03FFB00903C
:1040F00023461B220249284607F0EAFF38BD00008C
:10410000073F000002480021016041607047000045
:10411000644A00200098022B01D004207047517897
:104120001278090211430180002070470098012B8A
:1041300001D004207047117801700020704770B5DD
:10414000049C1E461546062B1BD36878297800026E
:1041500008432080E878A9780002084360800220A4
:1041600020710246291D601D11F052FBB01F2081F5
:10417000062E03D0AD1DE560002070BD0020E0607C
:10418000FAE7042070BD0098042B01D0042070478A
:1041900051781378090219430180D1789278090285
:1041A0001143418000207047F8B5C4880D46002CAB
:1041B0002BD086683778390601D4002010E00D2C0A
:1041C00023D30C3CA4B231190091408823463246D7
:1041D000012107F07FFA002801D0022000E0012031
:1041E00079062870C90FBA066970920EAA70641E0B
:1041F0002204120CAA8002D0761CAE6001E00022DC
:10420000AA60022803D1002901D00120F8BD0020B6
:10421000F8BD10B50298042B14D351781478090214
:1042200021430180D1789478090221434180191FEC
:104230008180042B02D0121D826001E00021816088
:10424000002010BD042010BD0098042B01D00420D4
:10425000704751781378090219430180D178927818
:104260000902114341800020704710B502981146A1
:10427000062B03D0142B03D0042010BD022200E033
:10428000102202714A780B7812021A430280CA780F
:104290008B7812021A4342800279401D091D11F0E9
:1042A000B7FA002010BD0098D90706D1022B04D020
:1042B00059088180026000207047042070470098F0
:1042C000022B01D004207047517812780902114363
:1042D00001800020704710B5029C022B11D3207280
:1042E000617250781178000208432080981E608027
:1042F000022B02D0921C626001E00020606000206E
:1043000010BD042010BD000038B5054688680C4675
:10431000002802D0052111F029FA00902346172227
:104320000249284607F018FF38BD0000193F000079
:1043300038B5054648680C46002802D0012111F026
:1043400015FA009023460D220249284607F004FF83
:1043500038BD0000353F000038B5054608880C46DA
:1043600000280DD0606800280AD0022111F0FEF963
:104370000090234611220349284607F0EDFE38BD80
:10438000022038BD393F000038B5054608880C4684
:1043900000280DD0606800280AD0022111F0E6F94B
:1043A0000090234609220349284607F0D5FE38BD70
:1043B000022038BD493F000038B5054648680C4624
:1043C00000280AD0012111F0D1F9009023460F22D4
:1043D0000349284607F0C0FE38BD022038BD000062
:1043E000593F000038B505464A6800200C46002AAF
:1043F00003D00121104611F0B9F9009023460B2299
:104400000249284607F0A8FE38BD00005D3F0000C5
:104410000149086070470000644A002070B50546F5
:1044200008480C46854205D0172C03D303F008FC3E
:10443000A04201D2012070BD214628460CF072FF37
:1044400070BD0000FEFF000008B500210B461322DE
:10445000009107F081FE08BD04480349006801602F
:104460000349C16270470000A5220801444A0020A8
:10447000784E010010B5074C5D202168086506F0F4
:1044800067F820680021016503484279521C427197
:10449000C17110BD1C480020C470002070B52C49AB
:1044A000002048602B4800892B4CC0B281090229AA
:1044B00004D0012908D0810916D026E0C820A080A8
:1044C0001020E080E8201FE0C506ED0E2D202946D3
:1044D0008001FFF7E7F8A08029467820FFF7E2F88F
:1044E000E08029461D480DE0C506ED0E2946C02096
:1044F000FFF7D8F8A08029460820FFF7D3F8E0801E
:104500002946E820FFF7CEF82081164914480860B4
:104510001649154808601749154808601749164894
:10452000086018491648184C08601849206801228C
:10453000D2020861801848610120487100F062F9D8
:10454000607D002802D112492020086070BD000063
:104550002048002000100040A4700020980D0000AA
:1045600000C00040484A002000C30040404A0020EC
:1045700000C200401C48002000D000404C4A0020EF
:1045800000C10040444A002070700020C470002028
:1045900000E100E0F8B55648006881680127C905C8
:1045A0000025544C544E00292EDA81683A0291437A
:1045B0008160207840060CD55048514900688842F7
:1045C00006D15049886BE0608A6B9042FAD100E0D6
:1045D00080472078384320706570E079062803D042
:1045E00043495D2009680865306800280AD00169E0
:1045F0000A68406902430A6031680868026889688D
:104600000A4302606571A560394B186881688905A5
:1046100021D581680122520291438160A0783843FC
:10462000A070E57038480068C16A89088900891C53
:10463000C1620168D20411430160306800280AD0C9
:1046400041680A68806802430A603168C868026885
:1046500049690A43026018688168890717D581682B
:10466000022291438160E770A5705D210165306889
:1046700000280AD001690A68406902430A6031686B
:104680000868026889680A4302606571A560186855
:104690008168C90715D08168490849008160257083
:1046A0006770306800280AD041680A688068024351
:1046B0000A603168C868026849690A430260657126
:1046C000A56018688168C90603D5816810229143E6
:1046D00081608168490703D5816804229143816024
:1046E0008168090703D58168082291438160F8BD7C
:1046F0001C480020C47000202448002018480020D6
:1047000049B2000000100040444A002070B5044641
:104710000068002828D00121000C4903884223D1D9
:10472000A088002820D020460622FF21163011F054
:1047300052F801281AD0A2880021206811F060F9EF
:10474000342200212D4811F05BF9342221462B48F8
:1047500011F05EF82948062216300021054611F0B6
:104760003AF8012804D008E0022070BD032070BD93
:1047700023490622284611F04BF820488189002958
:1047800002D1012149028181827B0121002A00D1CD
:104790008173C27B002A01D11B22C273027C002AD2
:1047A00001D105220274427C002A00D14174817C2F
:1047B000002901D114218174817F002901D1282190
:1047C0008177C17C002908D0827FE17C920889181A
:1047D000C174617F002904D005E0817F89082D31F3
:1047E000F6E702214177806A002803D08047034919
:1047F0003431488107F01CF8002070BD7070002033
:104800000806040010B500F065F803F081FB05F020
:1048100039FEFFF721FE0B4C5D202168086505F08D
:1048200049FF06F007FD05F00DFF05F091FE064873
:1048300001214171226800211165C171FFF75AF809
:1048400010BD00001C480020C470002070B50E4B45
:1048500000209989002901D10C4999810E21012458
:10486000A4039A8915462540CD405204120C0543F5
:10487000E8B25604D50BF60F75401543491EC9B270
:104880009D810629EDD870BD88720020FF7F000051
:1048900070B50E4B00205989002901D10C4959816E
:1048A00008214C015A8915462540CD400543520048
:1048B000E8B2550A56097540ED07ED0F1543491E3C
:1048C00009065D81090EEDD170BD000088720020DF
:1048D000FF0100000A48094900680A6902610A6983
:1048E000426149698161C1618268012149030A43CA
:1048F0008260C2680A43C26070470000C470002032
:10490000484A002030B5104A0346517AFD208424DD
:1049100054720E4CA568002D07D0A57B002D04D045
:10492000A489E51FFF3DFA3D02D05172FF2030BD42
:104930007D24E402A34205D35360A6201072907A2E
:1049400040235840517230BD001800407070002064
:10495000F8B500240F4E274613E0F06B2501281808
:104960000622FF2111F04CF8F06B06222818FF21D7
:10497000801D11F045F8F06B28188781641C87733F
:10498000E4B2307E8442E8D3002011F019F9307E81
:104990007076F8BD9C49002070B50C460146012098
:1049A00080020A1A00252B48130007F03BF920115A
:1049B0001316181A1D1F21232527292B3234364898
:1049C000393B3D3F434848484848484848464148A5
:1049D000007800E04078207039E08078FBE7C0780C
:1049E000F9E710221C4910E00079F4E74079F2E77A
:1049F000006A13E08079EEE7C079ECE7007AEAE735
:104A0000407AE8E7144910221031204610F000FFE8
:104A10001DE0807ADFE7C07ADDE7406A206016E0BB
:104A2000007BD8E7407BD6E7807BD4E7407CD2E7A9
:104A3000807CD0E708F006F9CDE7807DCBE7192927
:104A400004D2084601F058FA208000E002252846EA
:104A500070BD00009C490020BC71002010B50446C8
:104A600000F0D4F80248C47508F026FA10BD000022
:104A70009C490020FFB58FB0064600200C900D9099
:104A80001F460CAA304600F0B5FA454D0446287E74
:104A900084425AD2204608F0EFF90646042F04D08B
:104AA000A879022803D0002002E02878F9E7012045
:104AB00000903B4632462146119808F09BF814229C
:104AC000002101A810F09CFF2046062148430090D9
:104AD0002430C0B201AA102111F0D0F8002813D15F
:104AE0001022FF2101A810F076FE00280CD10098BA
:104AF00005AA2530C0B2042111F0C0F8F107C90F92
:104B000001AA119801F070FC7034E0B206AA1821D5
:104B100011F0B4F8002811D106A808F0BFF900245C
:104B2000A10006A808180188002903D082781198EE
:104B300001F09AFF641CE4B2062CF1D3B00706D54D
:104B4000E97D119801F07EFF01E0082F02D0042FCB
:104B500013D021E0A87902281ED1002231461198F5
:104B600007F082FFA86A002816D04368002B13D0F4
:104B700000221146119898470EE0287802280BD1A0
:104B800029791198002900D001216A78002A00D0E3
:104B90000422114301F0EEFB002013B0F0BD000031
:104BA0009C490020F8B501F03DFA00282BD1164DA4
:104BB0000026E87C012801D000241CE008F08EF8D3
:104BC000EE7400202A7EE96B04E003015B18401CB0
:104BD0009E73C0B29042F8D310E0E86B27013818FA
:104BE000807B012805D1204608F08AF8E86B381848
:104BF0008673641CE4B2287E8442EED3502011F008
:104C000001F808F059F9F8BD9C490020F8B5354E77
:104C1000FF20F07500273776334CF763A07B3021F7
:104C20004843422110F010FEF063002825D02046B2
:104C3000807B410040183076002413E0F06B2501A2
:104C400028180622FF2110F0DBFEF06B0622281840
:104C5000FF21801D10F0D4FEF06B28188781641CA2
:104C60008773E4B2307E8442E8D31F48806800280E
:104C700001D0B77601E08020B076307E70760124D6
:104C8000776334707770B770F7701022002117487F
:104C900010F0B6FE3771772575713762B471F77110
:104CA00012483772777210220021103010F0A8FEDF
:104CB000B772F57277623773052070731020B07386
:104CC000F77302203074B762F76237637774F77452
:104CD000347504487475B475054948300160054958
:104CE0004160F8BD9C49002070700020BC7100201C
:104CF000C9D1000091D1000070B5002405460029FB
:104D00000BD108491046FEF7CDFC0846294601F0B4
:104D1000E5F9040003D00121284601F08DFB20466F
:104D200070BD000040420F0010B506490C46483CDB
:104D3000A162E062E17D182001F03CFBE07D01F022
:104D40002DFE10BDE449002070B5264D0C46080428
:104D50000FD5E87D10F098FE050006D008F052F956
:104D6000002802D0284610F067FE0120C0036040F2
:104D700070BDA0070BD50021084607F0D7FD022122
:104D80004C40002825D1E87D10F008FF1FE0E00727
:104D900021D0686B808808F067F901214C40002819
:104DA00017D0A86A00280DD04368002B0AD0686B82
:104DB000002280889847A96A686B00224B68808827
:104DC00003219847287D10F039FF07F0A1FD204608
:104DD00070BD0121D7E7600702D50420484070BDAF
:104DE000002070BD9C4900207FB5044680787F4D2F
:104DF000801F030006F016FF0AF4F7F7A41306F06D
:104E0000F778B9F7A96A2046002907D00C68002C6A
:104E1000FBD0437B027B4189C01CA047E3E0607864
:104E20000026002847D1A079C00744D0686B00282D
:104E300041D110220021684610F0E2FD616900298D
:104E400003D006226846103107E0A0880CF0D4F8A1
:104E50000028E3D0811D0622684610F0D9FC69467F
:104E60008889A1794907C90F08436946888107F0F5
:104E7000E9FE297E88420BD1A87D002801D0FFF7EA
:104E800067FD5B48026B002A02D001210820904791
:104E900007F0D8FE297E8842A87E02D1012108436E
:104EA00001E040084000A8762146684607F03EFD34
:104EB000002812D01526A86A002855D04368002B78
:104EC00052D06278A08801219847002E4CD0A96A60
:104ED000A0884B683246032173E00221E87D10F080
:104EE0005DFE002004B070BD6078062817D1A08850
:104EF0000CF082F8060012D0287C012804D0022889
:104F000008D003280BD114E07179A088002207F0A3
:104F1000ABFD04E0A1883078052201F09DFAA86A73
:104F2000002860D04368002B5DD06278A088022101
:104F300047E0002241201146000100F0F7F8E9E7C0
:104F4000E0780022211D00F055F8297E88424AD2DF
:104F50000621484325302246C0B20C32042110F00D
:104F6000D1FE287D10F06AFE3DE0287B002802D0AB
:104F7000A088697B28E028780028A08823D00CF03E
:104F80003BF806002FD0A07AC0070BD0707900281C
:104F900008D0A189890505D46A46B11D00F02AF818
:104FA000002814D022467179A088083207F05CFDF1
:104FB000A86A002817D04368002B14D00022A088CC
:104FC000114698470FE0052101F036FA0BE0A08862
:104FD0000321F9E700E003E0A08800F031FA02E0E5
:104FE000A088FFF7DFFD01207CE700009C4900203E
:104FF00070700020F0B52E4E85B0347E15460F46F9
:10500000002806D0012804D0022811D003284BD153
:1050100021E0084607F0E8FE317E0446884243D28C
:10502000002D41D006223946284610F0F1FB3BE026
:1050300000240BE0F16B2001401806223946801D48
:1050400010F0D8FB002826D1641CE4B2307E8442E4
:10505000F0D3C4B21FE0002419E0204606214843E3
:105060002330C0B26A46102110F008FE00280CD18F
:105070001022FF21684610F0AEFB002805D139460A
:10508000684601F045F9002805D0641CE4B2307E82
:105090008442E2D3DDE7307E844205D2002D03D086
:1050A0002946204607F0C8FE204605B0F0BD0000A6
:1050B0009C490020F8B50E4619491525194F88421C
:1050C00014D1002409E032460221204607F0D4FD25
:1050D000002800D00025641CE4B2387E8442F2D35C
:1050E000002E1BD010480CF0A5F817E00BF084FF41
:1050F000040012D060790022A11DFFF77BFF397EEA
:10510000884204D23246022107F0B6FD0025002E67
:1051100004D0204607F012FF00E014252846F8BD11
:10512000FFFF00009C4900203DCF0000F0B507467E
:10513000012080021546381A89B00024BC4ABD4EB1
:10514000030006F06FFD2011181F262D333A3F464D
:105150004D545B626970757CEFEEEDECEBEA89E92A
:10516000E8AAAAF3F6E5E4EB012971D12878022830
:105170006ED8307059E10129F7D128780128F7D885
:10518000707052E10129F0D128780428F0D8B0706D
:105190004BE10129E9D128780128E9D8F07044E1F0
:1051A0001029E2D110222946A348ADE00129DCD123
:1051B00028780128DCD8307137E10129D5D1287849
:1051C000707132E10429D0D128689042D0D8306281
:1051D0002BE10129C9D128780228C9D8B07124E16E
:1051E0000129C2D128780128C2D8F0711DE1012916
:1051F000BBD128780428BBD8307216E10129B4D17C
:1052000028780128B4D870720FE11029ADD18A48EE
:1052100010222946103077E00129A6D128780128EC
:10522000A6D8B07201E101299FD12878F072FCE084
:1052300004290DD1286890420AD87062F5E000294F
:1052400006D100F0EFFE002803D00120F074ECE05E
:1052500074E007F043FD1CE007296FD10622691CAA
:10526000684610F0D5FA287800226946FFF7C2FE9A
:105270000546307E854239D200F0D4FE002805D0A4
:10528000F26B0120290189188873CEE0284607F0C7
:1052900037FD502010F0B6FC96E007294ED10622CB
:1052A000691C07A810F0B4FA2878002207A9FFF7B4
:1052B000A1FE317E88421BD2062148430546213596
:1052C000E8B26A461C2110F0D9FC00280ED15B48D8
:1052D000874201D1012000E0FF206946C876E8B28C
:1052E0006A461C2110F00EFD307D4BE002249CE04C
:1052F000B07E0028FAD05148874214D10120F076C0
:105300004C4807222946403010F082FA8DE05EE0DA
:105310007AE00EE00AE075E06FE067E07BE04AE0EB
:1053200041E039E031E00020F0767EE00020707549
:105330007BE00027012070753D461BE066E02846B3
:105340000621484306462136F0B26A461C2110F079
:1053500095FC00280CD16846C07EFF2808D0FF20AD
:105360006946C8760127F0B26A461C2110F0CAFCD3
:105370006D1CEDB22F48007E8542E0D3002F54D043
:105380002C48007D10F05AFC4FE001293ED12878CE
:1053900001283BD8307348E0012937D12878092803
:1053A00034D8707341E0012930D12878C11F092910
:1053B0002CD8B07339E0012928D1717C2878707419
:1053C000002932D1012830D107F076FD2DE00129E6
:1053D0001CD1B17C2878B074002903D1012801D1F7
:1053E00007F06AFDB07C02F0E2F81EE001290DD161
:1053F000287803280AD8307417E0012906D12878C4
:10540000307512E00120BDE7012901D018240CE01D
:105410002878B07509E0192F00D367E70229FCD17D
:105420002988384600F0C6FF0446204609B0F0BD82
:105430003F420F009C490020BC7100201A0400006C
:10544000FEB5064600200190029030460BF0D4FDD8
:10545000040017D0144FB879022813D0607901AA3C
:10546000A11DFFF7C7FD0546387E85420BD22846B1
:1054700007F002FD0246012000900823294630462D
:1054800007F0B8FBFEBDB879002807D00128F9D194
:1054900061790022304607F0E7FAFEBD052130466B
:1054A00000F0CAFFFEBD00009C490020F7B5164978
:1054B0001525164E174688420FD1002409E03A46BA
:1054C0002046019907F044FD002800D00025641C07
:1054D000E4B2307E8442F2D313E00BF08DFD00285D
:1054E0000ED04379811D00221846FFF783FD317EDF
:1054F000884206D23A46019907F02AFD002500E0CD
:1055000014252846FEBD0000FFFF00009C49002036
:1055100070B50C460146032000020A1A00252548F2
:10552000130006F07FFB130B0D10171A1E212529FF
:105530002B2D3133393B3D3D35373D00407811E06F
:1055400010221D4902E01C4910221031204610F0A3
:105550005FF92DE0406920602AE0164906221E31DD
:10556000F4E7C078207023E0124982782431EDE717
:10557000114902791F39E9E7407AF3E7807AF1E7C8
:105580000C4906221831E1E7C07AEBE7007BE9E736
:10559000C0890AE0008A08E0007AE3E74079E1E7A1
:1055A000192904D2084600F0A7FC208000E002255B
:1055B000284670BDF04900201B720020F8B5164C3B
:1055C000FF202070002565700320A0700126E67082
:1055D000062765611920E781C001208220461F222D
:1055E0002946243010F00CFA2046022124300170A4
:1055F0004670877025711F220021084810F000FABC
:10560000204606220021183010F0FAF96571A571C4
:10561000FF20E071F8BD0000F0490020FC7100207F
:10562000FFB583B01C4615460E460C9F03980BF041
:10563000E3FC002817D0C189B14207D3A94205D89D
:10564000018AA14202D1408AB8420ED06846068043
:1056500045808480C78069460D9A039802F0C2FA9B
:10566000002007B0F0BD1420FBE71820F9E7000088
:1056700010B52548007F800744D0244C2078FF28AF
:1056800040D1234806F01CF92070FF283AD0214968
:1056900000240C602049214A0C700421117000F094
:1056A00031FE102200211E4810F0AAF9102200211C
:1056B0001C4810F0A5F91C481E4904601B48184AF4
:1056C00004701B480470072008701B4810210470E8
:1056D000022010F0D3FA134A1021032010F0CEFA62
:1056E00010220F49154810F093F8144810220D4964
:1056F000103010F08DF804210B4A084610F0BEFA65
:10570000002010BD182010BD70700020F04900204E
:10571000A1570000EC490020F8490020F149002081
:105720001B7200202B720020044A0020F94900203F
:10573000FA490020FB490020FC490020DC710020D0
:1057400010B504F083FC104806F0BAF802F08AFAAB
:105750000E4806F0B5F800F0DBFB0D4806F0B0F897
:1057600001F0D2FA0B4806F0ABF805F033FE0A4818
:1057700006F0A6F8FFF772F9084806F0A1F800F065
:105780000DFFFFF775FF10BDA97D0000216200002D
:10579000156E0000E5B40000494D00001D670000D3
:1057A000FEB54A4C0D46080448D5207810F06CF937
:1057B000040040D046480078002808D02078454EA4
:1057C000D02808D0A22802D0912821D014E0204669
:1057D00008F09CFD2CE0A07800280DD0052807D00B
:1057E000082809D006280BD00728F0D1A0881BE094
:1057F000608919E0007B04E0204608F087FD02E0A4
:10580000E0790828E3D12146307810F075F912E0EC
:1058100060780E28F0D1A0882F498842ECD1A0688A
:1058200081784278080210430BF0E6FB0028E1D1B2
:10583000204610F001F90120C00345E068040BD5B3
:105840000421264A084610F05DFA2548007810F039
:10585000F5F90120800337E0E80736D021480078C9
:10586000002830D00BF0FEFC1F49097F8907890F03
:10587000884203D30320694608700CE01B48694640
:10588000007808701A4806220078487000A8194964
:1058900002300FF0BDFF18486946007808721748BB
:1058A00000784872207800F04FFB00280BD0144994
:1058B0000620087013490968002904D00A68002AE4
:1058C00001D00021904701206840FEBDF049002032
:1058D000F6490020F749002005140000044A002082
:1058E000B0490020F349002070700020F9490020E1
:1058F000FA490020084A0020FB490020FC4900200A
:10590000F8490020EC4900207CB514460D4601F012
:10591000FBFA002D02D02846FFF706FA0C48007863
:10592000002801D011207CBD002C01D00948046062
:105930000A48009008490B48019102780A48084B30
:1059400001780A48007800F059FA00207CBD000078
:10595000F8490020EC490020044A00202B72002066
:105960001B720020F5490020F1490020F049002079
:10597000F8B50C465E491646421819210025C901A2
:105980005C4F130006F04EF9120A1017A81C3E5285
:105990006970778188A8A3A8A88F98A8102C73D1C4
:1059A0001022314654486CE0102C6DD15248102220
:1059B0003146103065E0042C66D13068786190E0A3
:1059C000012C61D1F97830784A4AF87012780029B0
:1059D0000AD0002807D1387A022801D0052802D140
:1059E000104600F05FFA7CE000287AD0387A01286F
:1059F00003D0032801D0042873D10121104610F0F0
:105A0000CDF86EE01F2C60D83A481F2200212430C8
:105A10000FF0F6FF37482246314624300FF0F8FEEB
:105A2000344BBC7024332246012112E01F2C4CD889
:105A300031481F2200211F380FF0E2FF2E48224676
:105A400031461F380FF0E4FE2B4B3C711F3B2246C2
:105A50000021387800F044FD48E0012C35D1307841
:105A6000042832D878723CE0012C2ED130780328FB
:105A70002BD8B87235E0062C27D11E4806223146B5
:105A800018300FF0C5FE2CE01FE0012C1DD130783E
:105A900007281AD8F87224E0012C16D13078032890
:105AA00013D838731DE03088022C0ED106280CD391
:105AB00088420AD8F88114E03088022C05D10628E3
:105AC00003D3884201D838820BE0182509E0012C65
:105AD000FBD13078787104E0192801D2022C02D071
