:020000040000FA
:1000000000800020B5330000BD330000BF33000086
:1000100000000000000000000000000000000000E0
:10002000000000000000000000000000BF330000DE
:100030000000000000000000C1330000C3330000D6
:10004000C5330000C5330000C5330000C5330000D0
:100050001D4A0000617A0000A70F0000C5330000B0
:10006000C5330000C5330000C5330000C5330000B0
:10007000F13B0000C5330000C5330000C53300006C
:10008000C5330000C5330000C5330000C533000090
:100090000348854603F082FE00480047390500000A
:1000A0000080002010B588B00446C54804700020C8
:1000B000C44908700121079164210691012105912D
:1000C00008210491039132210291FF21F531019120
:1000D00007AA0121BC4805F0F9FB06AA0221BA488B
:1000E000401C05F0F3FBB94A0D21B748801C05F010
:1000F000EDFBB74A17216120C00005F0E7FB05AA18
:1001000001213120000105F0E1FB04AA0221AE48E3
:100110000C3005F0DBFB03AA0221AB480D3005F0E3
:10012000D5FB02AA0221A8480E3005F0CFFB01AA98
:100130000221C520800005F0C9FBA64A1521002038
:1001400006F07AFE0020079001210691002105911A
:10015000032104910121039107AA04218120C000F9
:1001600005F0A2F806AA0121880205F09DF805AA6B
:1001700001219548FD3005F097F804AA0121924825
:10018000FE3005F091F803AA0121934805F08CF8A0
:100190000621079107AA0121084600F0BAFF02F0E4
:1001A000A3F88E498E4801F0ECFB012184480078C9
:1001B00015F01EFB08B010BD1CB5044600216846B2
:1001C000017041708470C170017141718171C171A0
:1001D0006B4608220121002001F0D3FC1CBD70B544
:1001E000064634463078C02859D1A578E1784D408C
:1001F000002D07D002217248007815F0F9FA00208E
:1002000070490870E807C00F00280ED0A078C0071A
:10021000C00F002806D073A00BF03EFD8020694976
:10022000087002E072A00BF037FD02202840002881
:100230000ED0A07802210840002806D06FA00BF055
:100240002BFD81205F49087002E06FA00BF024FDB8
:100250000420284000280ED0A0780421084000285F
:1002600006D06CA00BF018FD2C205649087002E057
:100270006BA00BF011FD0820284000280ED0A078BC
:1002800008210840002806D068A00BF005FD0420D6
:100290004C49087002E068A00BF0FEFC00E000BFD3
:1002A00000BF70BD70B506460C462246654966A083
:1002B0000BF0F2FC0120C0032040002810D0404881
:1002C000007815F099F9051E05D02846FFF787FF3D
:1002D000284615F06FF920460121C903484070BD3A
:1002E000E007C00F002803D0204601214840F6E770
:1002F00002202040002807D032480078FFF75CFF3A
:10030000204602214840EAE70020E8E770B50446AD
:100310000D46514951A00BF0BFFC012C01D100202A
:1003200070BD0D20FCE7FFB583B00F461C460D9E47
:100330000C9D002002904B4948A00BF0ADFC002C16
:1003400019D149490598884209D1022F07D147A000
:100350000BF0A2FC28783146FFF7D8FF02900298F4
:10036000002822D100962B783946059A039802F08E
:1003700038F8029019E0012C0BD142A00BF08CFC54
:100380002B4600963946059A039802F055F80290DC
:100390000BE0022C09D140A00BF07EFCFF22F532CD
:1003A00002210748007815F0CDFB029807B0F0BD98
:1003B00010B504463E4929A00BF06EFC10BD0000AC
:1003C000004000203C4000200503000018400020B1
:1003D00001400020CE5C01000604000030400020F7
:1003E00028400020315F50524553532E0A00000030
:1003F000315F52454C4553452E0A0000325F505242
:100400004553532E0A000000325F52454C45534578
:100410002E0A0000335F50524553532E0A0000004D
:10042000335F52454C4553452E0A0000345F50520D
:100430004553532E0A000000345F52454C45534546
:100440002E0A0000E35C0100257320494E2C6576DE
:10045000743D25580A000000F75C0100257320490F
:100460004E0A0000075D01004D2A00004849445F24
:100470005245504F52545F545950455F4F55545058
:1004800055540A004849445F4445565F4F50455211
:100490005F524541440A00004849445F4445565F65
:1004A0004F5045525F454E41424C450A0000000006
:1004B000135D010010B500242046641C0BF042FBC4
:1004C0002046641C03F0FDFA2046641C08F04AF93B
:1004D0002046641C07F0F6F82046641C05F066FC14
:1004E0002046641C06F07AFA2046641C0BF0CCF817
:1004F0002046621CD4B204F015FC2046621CD4B223
:1005000005F010FF2046621CD4B205F065F82046C5
:10051000621CD4B201F0CFF82046621CD4B2FFF7BF
:10052000C1FD2046621CD4B200F0F0FA2046621CE5
:10053000D4B200F051FD10BD0C48806A012149027F
:1005400008430A49886203210120400202F058FB57
:1005500002F083FE064907A00BF09EFB03F010FAA1
:10056000FFF7A8FF01E00BF019FBFCE7801000404B
:100570004061010025730A00704770477047FB49CE
:1005800009680978FA4A1170F84909680978C907B1
:10059000C90F002906D0F749C96801221143F54A5D
:1005A000D16005E0F349896801221143F14A916065
:1005B000EE490968097802221140002905D0ED4969
:1005C000C9681143EB4AD16005E0EA498968022213
:1005D0001143E84A9160E54909680978042211400D
:1005E000002905D0E349C9681143E24AD16005E01A
:1005F000E049896804221143DE4A91607047F8B5EA
:100600000027DD48857902202840002875D0DA4887
:10061000C0798006800E202870D006DC03000BF025
:1006200063FB05F4F3F2F1F07A00232867D004DCD1
:1006300021286FD022286ED1FCE124286CD03028EC
:10064000F9D1C220CC4920318870CB48047A082CDB
:1006500072D1CA480168C879897900020843C8493B
:100660000880C64800684078C6490870C3480068DA
:10067000067800240027C1480068007860210840FF
:10068000002801D0FF2724E1BE48007803000BF0CA
:100690002BFB0BF2BDF1F1F19807F1A2AFF0F100E5
:1006A000B6480168C878897800020843001201281A
:1006B00006D0022809D003280CD0222862D140E0BD
:1006C000B148B249086004785EE0B148AF490860BB
:1006D000847859E0A9480168C878897800020843FD
:1006E000C0B203000BF000FB06040C11191E2329F5
:1006F000A848A6490860047821E0E4E10CE1AFE1F4
:10070000A548A2490860047819E0A4489F490860F8
:10071000047814E078E1D0E1C0E1A1489B49086089
:1007200004780CE09F4899490860047807E09E48E7
:1007300096490860047802E0CAE0FF2700BF00BFC6
:1007400022E08E4801684879097900020843C0B266
:10075000002804D0012807D002280FD109E09348CF
:100760008A49086057240BE091488849086043246F
:1007700006E09048854908603E2401E0FF2700BF5D
:1007800000BF01E0FF2700BF00BF7D480088A042F6
:1007900001DD7B4804807A480088402801DB402046
:1007A00001E077480088C4B222467848016873485F
:1007B000006803F0B0FA75480068001973490860D2
:1007C00085E06E480168C878897800020843C0B2A5
:1007D0006B4908807BE078480078684909680870B0
:1007E00067480088012802DD0120654908806EE025
:1007F00062480168C8788978000208436E49087029
:1008000065E037E120E109E1F2E0EEE05B480068F5
:100810000078C006C00E02283AD1584801684879CD
:10082000097900020843C0B2012825D002280DD062
:10083000812814D0822828D14F482030807A432143
:100840008843801C4C492031887220E04A4820307F
:10085000807A8C21884348492031887217E04648C5
:100860002030807943218843801C4349203188719E
:100870000DE00FE029E019E03F48203080798C211D
:1008800088433D492031887101E0FF2700BF00E027
:10089000FF271CE0002039490968087038480088A3
:1008A000012802DD01203649088010E0002033498C
:1008B0000968087031490968487031480088022881
:1008C00002DD02202E49088001E0FF2700BF00E082
:1008D000FF27FF2F04D1CF202749203188701AE04D
:1008E0008020304000280ED025480088402801DDB7
:1008F000402001E022480088C4B221480088001B43
:100900001F49088000E000241B4820300470C020EC
:10091000194920318870D1E01A48007805284DD057
:10092000062859D116480088402801DB402001E004
:1009300013480088C4B22246144801680F48006872
:1009400003F0E9F90E480088001B0D4908800F48A4
:10095000006800190D49086007482030047080784D
:10096000402148400449203188703CE0BC440020CC
:1009700085400020C010004000800040B8440020A6
:100980007E4000207D4000201F5D0100804000204F
:10099000315D01006B5E01006F5E01007D5E010054
:1009A000895E0100A35E0100BF5E0100935D01004E
:1009B000EA5D01002D5E01007C400020FE48C07809
:1009C00080210840FD4909780843FB49C87002208E
:1009D000F9492031887006E00020F749203108707D
:1009E0000220887000BF00BF68E0F348047A65E029
:1009F000F148C07940210840002804D0EE48047A2C
:100A00002046FFF7BCFD59E0EB4820308079800894
:100A10008000801CE849203188714FE0E648C079A9
:100A200040210840002804D0E348047A2046FFF71C
:100A3000A5FD43E0E0482030807A80088000801CDB
:100A4000DD492031887239E0DB48C0794021084017
:100A5000002804D0D848047A2046FFF78EFD2DE008
:100A6000D5482030807B80088000801CD24920310E
:100A7000887323E0D048C0794021084000280CD07A
:100A8000CD482030807C80214840CB49203188747B
:100A9000C948047A2046FFF76FFD0FE0C6482030B2
:100AA000807C40214840C449203188740846807CBD
:100AB00080088000801C887400E000BF00BF022016
:100AC000BD49887121E0E807C00F002811D000203F
:100AD000B949C8700220B849203188701220887145
:100AE00088728873B448807901210843B2498871BB
:100AF0000BE004202840002805D0AF4840790420AE
:100B0000AD49887101E0AC488571F8BD10B5044667
:100B1000AB480470AB48AC490860AC48AC490860CD
:100B2000AC48AD490860AD48AD49086002F0E8FB4B
:100B3000062001218140AB4A116000BF0121A0487D
:100B4000007814F055FE204602F0B4FC10BD70B5DC
:100B5000064634463078C0284AD1A578E1784D4021
:100B6000002D04D002219648007814F041FEE807D9
:100B7000C00F00280BD0A078C007C00F002803D0FA
:100B800099A00BF089F802E09BA00BF085F80220F9
:100B9000284000280BD0A07802210840002803D06C
:100BA00099A00BF079F802E09BA00BF075F80420F7
:100BB000284000280BD0A07804210840002803D04A
:100BC00099A00BF069F802E09BA00BF065F80820F3
:100BD000284000280BD0A07808210840002803D026
:100BE00099A00BF059F802E09BA00BF055F800E03B
:100BF00000BF00BF70BD70B506460C4622469A493C
:100C00009AA00BF049F80120C0032040002810D022
:100C10006B48007814F0F0FC051E05D02846FFF75D
:100C200096FF284614F0C6FC20460121C90348401F
:100C300070BDE007C00F00280AD07D22D200042139
:100C40005F48007814F07EFF204601214840EFE71E
:100C50000220204000287DD088480078C007C00FBF
:100C6000002872D08648406A012109030840002804
:100C70000AD157480068403080790121084354491F
:100C800009684031887109E0514800684030807936
:100C9000410849004E480068403081717848406AF8
:100CA00001214903084000280AD149480068403022
:100CB000807902210843464909684031887109E07A
:100CC00043480068403080790221884340490968E0
:100CD000403188716A48406A012189030840002830
:100CE0000AD13B48006840308079042108433849E4
:100CF00009684031887109E03548006840308079E2
:100D00000421884332490968403188715C48406A4F
:100D10000121C903084000280AD12D48006840304D
:100D20008079082108432A4909684031887109E01F
:100D300027480068403080790821884324490968A1
:100D400040318871072002F003FB4C4800780221F3
:100D5000084000E025E100282CD04948406AC9023B
:100D6000084000280AD11C48006840300078012162
:100D70000843194909684031087009E016480068BD
:100D80004030007841084900134800684030017045
:100D90003B48406A012149030840002872D10E48AF
:100DA000006840300078022108430B49096840314F
:100DB000087071E0ABE065E0008000407E400020FC
:100DC00084400020B0480020B84400207049002032
:100DD000BC440020F0490020C0440020704A00209C
:100DE000C444002000E100E04B4559315F505245BA
:100DF00053532E0A000000004B4559315F52454CB9
:100E00004553452E0A0000004B4559325F5052456C
:100E100053532E0A000000004B4559325F52454C97
:100E20004553452E0A0000004B4559335F5052454B
:100E300053532E0A000000004B4559335F52454C76
:100E40004553452E0A0000004B4559345F5052452A
:100E500053532E0A000000004B4559345F52454C55
:100E60004553452E0A000000D55E01002573204938
:100E70004E2C6576743D25580A0000008540002000
:100E8000801000404B4800684030007802218843C1
:100E900048490968403108704748406A0121890380
:100EA000084000280AD143480068403000780421F7
:100EB0000843404909684031087009E03D4800682E
:100EC00040300078042188433A490968403108706D
:100ED0003948406A0121C903084000280AD1354831
:100EE00000684030007808210843324909684031E1
:100EF000087009E02F4800684030007808218843D6
:100F00002C49096840310870082002F02BFA2B4860
:100F100000780421084000283FD02748406A890211
:100F20000840002805D10121254800684030417063
:100F300011E02148406A012149030840002805D1F9
:100F4000FF211F4800684030417004E000211C4828
:100F50000068403041701848406A01218903084008
:100F6000002805D10121164800684030817011E049
:100F70001148406A0121C9030840002805D1FF211A
:100F80000F4800684030817004E000210C48006880
:100F900040308170042002F0EFF9204602214840E1
:100FA00046E6002044E610B506A00AF075FEFFF7FD
:100FB00026FB10BDC044002080100040854000206A
:100FC000C44400200D0A55534220436F6E6E656382
:100FD00074696F6E0D0A000070B504462546032142
:100FE0000120800401F055FE03210120C00401F01E
:100FF00050FE1F4880680121890408431C4988600D
:10100000084680680121C9040843194988601922EB
:1010100092010121284614F095FD70BD70B5064679
:101020000C460120C003204000280DD0304614F0AB
:10103000E3FA0546002D02D0284614F0BBFA2046FC
:101040000121C903484070BDE007C00F00280DD042
:1010500008A00AF021FE1922920101210648007819
:1010600014F070FD204601214840ECE70020EAE73B
:10107000C010004040200000D344002010B50024E0
:10108000B449B54805F078F9B44B10220521B448AD
:1010900005F0F6FA0446204610BDB24908607047D4
:1010A0003EB504462079C007C00F00282BD06088C9
:1010B000A84905F0D7FA0546E807C00F002821D057
:1010C000002000906088002301221B2105F056FEBD
:1010D00002900298002814D0A148418D6846818072
:1010E0000121C180A0480078029908706088002220
:1010F00001A905F0AFFC002803D01B2101A805F0D1
:1011000083FE00BF00BF3EBD10B598480FF0AEFE95
:1011100010BDF8B504460F4615460026012C0AD12D
:10112000287893490870904800780978884201DA55
:10113000FFF7EAFF01E0022600BF00BF3046F8BD1E
:1011400010B502460023002A06D0012A08D0022A40
:101150000AD0032A1CD10BE083480078087019E0FC
:1011600083480078087015E07D484089088011E0C8
:101170000846804C247804717E4C64784471784C25
:10118000648D0480764C648F44800124847101E076
:10119000022300BF00BF184610BD70B57648006836
:1011A000002802D0744800688047FF242D3473481B
:1011B0000068002802D071480068804770480088A5
:1011C000844201DB642523E06E480088844201DC10
:1011D00000251DE06C480068002805D020466A49BB
:1011E00009688847054613E065480088654909880D
:1011F000401A401C86B2B61062490988611A192249
:101200005143721E8818314602F024FDC5B200BF5A
:10121000284670BD10B5FFF7C0FF0446524800785D
:10122000844203DA50480470FFF76EFF002010BDBF
:1012300070B5059D049C534E3180514E32804E4E08
:1012400033604E4E3460504E356070BDFEB50C4676
:1012500015461E46002001900898002801DD0B204D
:10126000FEBD606807786168497809020F43474806
:10127000874210D1FFF791FF00903B490978009811
:10128000884202DA384900980870012030803648D8
:10129000007828700CE03E48874207D10220308059
:1012A00002222846E16814F0B1F801E00A2001901A
:1012B0000198D5E7FFB583B00C4615460C9F002674
:1012C00060680078616849780902084302903149F2
:1012D00002984018002820D10120009701902A464A
:1012E0002146069B039805F05FF80646002E13D1B1
:1012F000287869780902084301901A480068002894
:1013000009D00199002901D1022100E001210846FC
:1013100014490968884700BF01E00A2600BF00BFE2
:10132000304607B0F0BD70B505460C460A48401E71
:1013300085420DD0012C07D0022C09D1012128466D
:101340000FF0E2FD002803D10249284605F014F809
:1013500070BD0000F04A0020FFFF0000F4400020B4
:10136000A4400020884000209E400020A1100000E2
:101370009C4000209F4000208C4000209040002096
:101380009A4000209840002094400020192A000034
:1013900008290000FED6FFFF10B5AA4B102213212A
:1013A000A94805F06DF910BDF8B504460D4616467E
:1013B0000027002C05D12A463146A44814F026F80F
:1013C00001E0022700BF00BF3846F8BD70B50446F3
:1013D0000D46002623000AF087FC09060C12181E91
:1013E000242A30363C0008229849284614F00EF88A
:1013F00031E00D229649284614F008F82BE00E2221
:101400009449284614F002F825E012229249284611
:1014100013F0FCFF1FE012229049284613F0F6FF5C
:1014200019E012228E49284613F0F0FF13E0122231
:101430008C49284613F0EAFF0DE00E228A4928461F
:1014400013F0E4FF07E007228849284613F0DEFF87
:1014500001E0022600BF00BF304670BDFFB583B07B
:101460000F461D460D9E0C9C002002907868007867
:10147000796849780902084301907D4A0198811AE8
:10148000904268D00ADC7B49401800280FD0012820
:1014900022D0022835D0032872D147E0012973D029
:1014A00002296FD003296ED02929F5D1ABE0082C91
:1014B00002D3072002900EE00820001BB04201D9A1
:1014C000304601E00820001B28802A885F48011967
:1014D000059813F09BFFB0E00C2C02D3072002907C
:1014E0000EE00C20001BB04201D9304601E00C2078
:1014F000001B28802A8856480119059813F086FF9A
:101500009BE00D2C02D3072002900EE00D20001B63
:10151000B04201D9304601E00D20001B28802A8806
:101520004C480119059813F071FF86E0112C02D385
:10153000072002900EE01120001BB04201D9304676
:1015400001E01120001B28802A88434801190598D2
:1015500013F05CFF71E0112C02D3072002900EE023
:101560001120001BB04201D9304601E01120001BC0
:1015700028802A8839480119059813F047FF5CE054
:1015800056E001E015E029E0112C02D3072002907B
:101590000EE01120001BB04201D9304601E01120BD
:1015A000001B28802A882E480119059813F02EFF69
:1015B00043E0112C02D3072002900EE01120001B03
:1015C000B04201D9304601E01120001B28802A8852
:1015D00024480119059813F019FF2EE00E2C02D3B0
:1015E000072002900EE00E20001BB04201D93046C9
:1015F00001E00E20001B28802A881B48011905984D
:1016000013F004FF19E0072C02D3072002900EE02C
:101610000720001BB04201D9304601E00720001B23
:1016200028802A8811480119059813F0EFFE04E07C
:10163000002028800A20029000BF00BF029807B057
:10164000F0BD000048420020184100200141002068
:10165000145F0100215F01002F5F0100415F010065
:10166000535F0100655F0100775F010011410020B9
:10167000272A0000DDD5FFFF10B504462246FE49AB
:10168000FEA00AF009FB10BD10B50446012C0AD1DA
:10169000FE48007805280DD1FD4A0221FD4800785A
:1016A00014F050FA06E0022C04D10221F948007827
:1016B00014F090FA10BD38B50446F64804700120C5
:1016C00000906A460121F44803F0EEFD0020C0437B
:1016D00005F0A2FB0020C04304F014FEFFF75CFEFF
:1016E000FFF7CCFC00F0ECFEEC48FFF7D6FCEC4832
:1016F00000F0F5FE0121E748007814F079F838BDD4
:101700007047FEB506460D461746E649E6A00AF0C4
:10171000C3FA002003462A461B210090E4480088B3
:1017200005F02CFB02900298002815D068468680B0
:10173000C5802A463946029813F068FE002201A9A6
:10174000DB48008805F086F90446002C05D01B21F3
:1017500001A805F059FB00E013242046FEBD30B57A
:1017600002460B46D3480168D34804780FE0087955
:10177000904209D14879984206D18879CF4D2D7889
:10178000A84201D1084630BD601EC4B20831002C09
:10179000EDDC0020F7E7FFB583B0074614461D4691
:1017A000C749C1A00AF078FA38460499FFF7D7FF75
:1017B0000290002835D00299488801A905F032F836
:1017C000061E2ED0BA480088F16804F04BFF009046
:1017D0000098C007C00F002822D0BA48007800281F
:1017E00008D0B84A0121AC48F43804F06FF8002062
:1017F000B4490870029908882A462146FFF781FFFC
:1018000000280BD1B0480770AF49049848700846CB
:10181000847022462946C01C13F0F8FDFFF770FFC4
:1018200000BF07B0F0BD10B5A8499FA00AF034FA78
:10183000A7480078A7490978884201D1002010BD47
:101840000B21A3480078401C02F004FAC8B2A0495A
:101850000870084600780B2148439F494018EEE77E
:1018600010B58A480078052807D1FFF7D3FC884ACD
:1018700002218848007814F065F910BD704710B552
:1018800004462078B02803D12046FFF7F7FF00E098
:1018900000BF00BF10BD70B506460C4622468F49FA
:1018A00076A00AF0F9F90120C0032040002810D0EA
:1018B0007848007813F0A0FE051E05D02846FFF7F3
:1018C000DEFF284613F076FE20460121C90348407A
:1018D00070BDE007C00F002809D0814803F0B8FFB1
:1018E000804803F041FC204601214840F0E70420F5
:1018F0002040002813D06548007805280BD17AA035
:101900000AF0CAF97D480078002802D0FFF7F8FEF7
:1019100001E003F0C5FF204604214840D8E702203B
:101920002040002805D0FFF79BFF204602214840B9
:10193000CEE708202040002821D0714800780028F8
:1019400019D0FFF770FF05466EA00AF0A5F9002D2B
:1019500005D0AA7869782878EB1CFFF71CFF5C4853
:1019600000785C490978884203D120460821484024
:10197000AEE72046ACE7204608214840A8E7002013
:10198000A6E7664A1160664A10607047494A1160CE
:10199000494A1070704708B50021009169463E48D9
:1019A000401C03F079F96846007808BDF8B5044694
:1019B0000D4616461F465B493BA00AF06DF9FFF73E
:1019C000EAFF00283FDD0B2142480078401C02F06E
:1019D00041F9C8B23F490870084600783C49097887
:1019E000884208D10B213A480078401C02F032F9B5
:1019F000C8B237490870374800780B214843364948
:101A00000C54344800780B21484333494018457042
:101A1000304800780B2148432F49401886702D49E3
:101A200009780B2251432C4A8918C81C3246394682
:101A300013F0ECFC32480078002804D00821154847
:101A4000007813F0D5FEF8BD08B5374916A00AF0A6
:101A500023F93021062004F07FFB5021072004F0F9
:101A60007BFB3C21012004F077FB002100916A46BA
:101A700001212E485CE000003360010025732049FD
:101A80004E2C6576743D25580A0000005542002012
:101A9000983A0000544200200D040000891600000E
:101AA0007916000056600100257320494E0A000097
:101AB000584200205C420020604200208342002007
:101AC000456001006C420020794B00207A600100E3
:101AD0006D4200206E420020004B0020905F01000C
:101AE00070420020885F01006869642069646C6549
:101AF000206576656E742E2E0A0000005A42002082
:101B0000564200204849445F53454E445F52455079
:101B10004F52545F4556540A0000000064420020B2
:101B20006842002066600100B96001000D030000FA
:101B300003F0CCFE012100916A46F74803F0C6FE8F
:101B400008BD08B5F549F6480AF0A6F82021062098
:101B500004F002FB3021072004F0FEFA05210120E9
:101B600004F0FAFA032100916A460121EA4808309C
:101B700003F0ACFE012100916A46E74803F0A6FE9F
:101B800008BDF8B504460D4616461F46E5480378DD
:101B90002246E549E5A00AF07FF8E24800780528EA
:101BA00017D1EA480078002820D0E9480078E949B0
:101BB000097888421AD1E8A00AF06EF8EA4800785D
:101BC00001F078FC3B46324629462046FFF7E3FD0C
:101BD000F8BDD4480078022808D0FFF7DCFE0028C2
:101BE00002DDFFF7AEFF01E0FFF72EFF3B46324676
:101BF00029462046FFF7DAFE00BFE9E708B5DB49D2
:101C0000C7480AF049F8C7480078052802D103F010
:101C100047FE06E0002000906A460121BE4803F01E
:101C200055FE08BD10B503460C46002B01D0082A0E
:101C300001DD002010BD002106E0585CA04201D06B
:101C40000020F7E7481CC1B29142F6DB0120F1E722
:101C5000F8B504460D460026002C34D1002D30D1B5
:101C6000C34A51781078FFF77AFD071E18D0C04894
:101C700082780021C01CFFF7D5FF00280BD1BC489B
:101C800082780021C01C13F079FCB94A9178388819
:101C9000D21CFFF736FD0B220021B54813F06EFC75
:101CA000A0480078052801D103F0FAFD0020A949D9
:101CB0000870A749087000221146AE4803F0F4FAF4
:101CC00000E0182601E0022600BF00BF3046F8BD44
:101CD0000246002000BF022000BF00BF704770B561
:101CE00004460D462A462146A348008803F0E2F840
:101CF00070BD10B50246A1480168A14803780CE008
:101D00000888904206D188799E4C2478A04201D15F
:101D1000084610BD581EC3B20831002BF0DC00206D
:101D2000F7E7FFB585B00D461E46002004906868B1
:101D3000007869684978090208430446924978485E
:101D400009F0AAFF0E98002805DD9048844202D0D1
:101D50000B2009B0F0BD8D48801C84420AD08B480E
:101D60002938844206D089481938844202D0401C60
:101D7000844218D16889FFF7BCFF039000280FD078
:101D80000798009601900398417900790290804865
:101D900000680123224607680298B847049050E083
:101DA000002030804DE0794884421DD1794909886E
:101DB0000E98884202DB0720049042E075480188B3
:101DC0000E98091A0F98814201DD0F9803E07148BF
:101DD00001880E98081A30803288EB680E9819181E
:101DE000079813F013FB2CE06848401E844207D18B
:101DF000042030800422E968079813F007FB20E0F4
:101E00006548844207D1022030800222E9680798A1
:101E100013F0FCFA15E05D48C01C844206D1012095
:101E20003080E8680178079801700AE05A48401E3F
:101E3000844206D1022030800222E968079813F01C
:101E4000E5FA0498002801D1FFF75AFC049880E7CE
:101E500002464A4801684A48037807E048889042A9
:101E600001D108467047581EC3B20831002BF5DC7B
:101E70000020F7E7FFB585B01446002004904749DD
:101E8000274809F009FF0E98002802DD0B2009B051
:101E9000F0BD0698406805780699496849780902B6
:101EA0000D433A48801C854203D038481938854292
:101EB00014D106994889FFF71CFF061E0DD008A80B
:101EC00001940090717930790390314800680023C3
:101ED0002A4607680398B8470490B5E02B48401C91
:101EE000854260D16846008C012859D120780028AD
:101EF00002D0207801280BD12278002A01D00122BB
:101F000000E000221046224A1268516888479BE090
:101F10008020049098E00000050300008E6001001E
:101F2000A81A000055420020A45F01002573204933
:101F30004E2C49443D25582C6869644465764761B8
:101F40007053746174653D25580A000056420020A4
:101F50006D4200206E42002053454E445F52455072
:101F60004F52540A0000000000400020B25F010000
:101F7000794B002009040000584200205C420020F8
:101F80006042002083420020BF5F01004B2A000016
:101F9000644200207842002008290000D15F01003F
:101FA0000D20049050E0B64885422BD101210E98B7
:101FB000019100906846038C22460699059804F02A
:101FC000F3F90490049800283ED120786178090242
:101FD0000843039006994889FFF73AFF061E10D080
:101FE00008A801940090039A012A01D1022200E07E
:101FF0000322134671793079A24A126817682A467B
:10200000B84721E0A04885421ED16846008C0128CF
:1020100018D12078002802D0207801280FD121780B
:102020000698C06801702278002A01D1022200E0DF
:1020300003221046934A12685168884704E08020C2
:10204000049001E00D2004900498002801D1FFF7CE
:1020500057FB04981BE7F3B581B00C468B48066824
:102060008B498C4809F018FE8B49019888421ED094
:10207000012C07D0022C1AD1012101980EF044FF47
:10208000002814D1854805780FE07088002809D011
:102090007088694604F0C6FB071E03D0F9680198F2
:1020A00004F06AF9681EC5B20836002DEDDCFEBDED
:1020B00008B57B49774809F0EFFD19218901062011
:1020C00004F04AF819218901072004F045F800219D
:1020D000012004F041F8032100916A460121714872
:1020E00003F0F4FB012100916A466E48083803F0C2
:1020F000EDFB08BD10B504216B48007813F06AFDB4
:1021000010BD10B56949634809F0C6FDFFF7F2FF3D
:10211000012167480088FFF706F90121644800881B
:1021200000F080FA012162480088FFF794FF002048
:102130006049087001206049087000205F490870FC
:102140005F48007801F0B6F90B2200215D4813F0DA
:1021500015FAFFF720FC002808DD5B4800680079CD
:1021600002210840002801D0FFF7A2FF10BD38B5BA
:1021700004465649474809F08FFD052C11D14C49BA
:102180004848401C03F0B4F900204A490870009008
:102190006A4601214348083803F098FBFFF7B0FA7C
:1021A00015E04B480078052810D1052C0ED0FFF71C
:1021B000A8FF01204749087047480078042806D145
:1021C000FFF742FC00204449087000E000BF40488F
:1021D000047038BD70B506460C4615463F492D487B
:1021E00009F05AFD002C03D101203449087019E090
:1021F000012C0AD1002031490870002D02D10120A4
:102200002C490870344805700CE0022C09D1002DCF
:1022100008D10120274908702548008800F086F978
:1022200000E000BF2E4800782E490978884208D087
:1022300020480078002804D008211B48007813F0BB
:10224000D7FA70BDFFB581B005460C4616460D485D
:10225000006800280DD00B4800688068002808D06E
:10226000084800688768324621462846049BB847DC
:1022700004E000221146204602F01CFE05B0F0BD2D
:1022800002290000644200204E2A00005C42002027
:10229000E45F0100A81A0000FEFF00006042002079
:1022A000A46001000D03000054420020FD5F010006
:1022B0005842002056420020834200205A4200200B
:1022C00084400020794B002068420020106001000B
:1022D000554200206C4200205B420020216001003A
:1022E0006D4200206E42002010B500246649674808
:1022F00004F042F86649654804F03EF8654B102248
:102300001A21654804F0BCF904466348C1690220FB
:10231000FEF716FF61480078614908715F48407810
:1023200048715D48C030408908805B48D0304089A2
:102330004880012088715B480178594801735948E9
:1023400041785748417358484089554908810021D0
:1023500053484181012181735048017850480175EB
:102360004E4841784E4841754F48303040894C497D
:1023700008824D4840304189494841820021817599
:1023800048480178464801774648417844484177B3
:1023900045486030408942490883002140484183D4
:1023A0008177424801783E48203001713F484178AA
:1023B0003B48203041713C4880304089384908848E
:1023C00000213748418401212030817101460831C4
:1023D0000320FEF7B5FE32490720FFF7D7FA204663
:1023E00010BDF0B50546059C0020314E9619002E13
:1023F00017D01B2E1DD1022907D1012B03D126781E
:102400002C4F3E700CE00D200AE0032907D1012B70
:1024100003D12678284F3E7002E00D2000E00A200C
:1024200008E0012B03D12678244F3E7000E00D20F8
:1024300000E000BF00BFF0BD30B50546039C1C485E
:102440001018002814D01B2818D1022905D11948CA
:10245000007820700120188009E0032905D1164872
:10246000007820700120188001E00020188008E02A
:102470001248007820700120188002E000201880A7
:1024800000BF00BF002030BDBC4B0020FFFF00009C
:10249000CC4B00203444002094420020864200208F
:1024A000844B00208A420020944300209242002066
:1024B000CED5FFFF89420020914200208F420020AC
:1024C00010B500246249634803F056FF624B1022A6
:1024D0000621624804F0D4F80446204610BD604945
:1024E0000860704710B50346002000BF022000BFFF
:1024F00000BF10BD10B502460020002A02D0012AFC
:1025000010D107E0574B1B78564C647824022343C4
:102510000B8009E0534B9B78524CE4782402234310
:102520000B8001E0022000BF00BF10BD3EB5044695
:102530004749204604F096F80546E807C00F0028F2
:1025400021D00020034601221B210090204604F0E8
:1025500015FC02900298002814D040485030418960
:10256000684681800121C180002002990870002204
:1025700001A9204604F06EFA002803D01B2101A80F
:1025800004F042FC00BF3EBDF0B505AC70CC0020AD
:10259000F0BDFFB583B00D4614461E4600200290E4
:1025A0000C98002802DD0B2007B0F0BD68680778A2
:1025B0006968497809020F432B4887421FD1042ECE
:1025C0001AD1207861780902084301902078617857
:1025D00009020843009001990098884209DC3246BC
:1025E0002146E86812F012FF01201D49096888475A
:1025F00001E08020029013E00D20029010E01B48C3
:1026000087420BD101210C9833462246019100905C
:102610002946039803F0C8FE029001E00A200290C8
:102620000298C1E770B505460C460A48401E85422F
:102630000DD0012C07D0022C09D1012128460EF023
:1026400063FC002803D10249284603F095FE70BDC3
:10265000DC4B0020FFFF0000AC4400204C44002075
:1026600040440020454400204F2A00000229000079
:102670005720FA490870A82008708820F749403987
:102680000881704700B5030009F02EFB0D081A2CD5
:1026900037414C56606A75808B96A1005721EF4AEE
:1026A0001170A8211170ED492039C97B0422914392
:1026B000EA4A203AD173C821E84A403A118187E0BA
:1026C0005721E64A1170A8211170E4492039C97BCD
:1026D00004221143E14A203AD173C821DF4A403A2B
:1026E000118175E05721DD4A1170A8211170512127
:1026F000C900DA4A403A11816AE05721D74A11707D
:10270000A8211170D649D54A403A118160E057217D
:10271000D24A1170A821117081218900CF4A403A14
:10272000118155E05721CD4A1170A82111708821DF
:10273000CA4A403A11814BE05721C84A1170A8217A
:1027400011700221C54A403A118141E05721C34A24
:102750001170A82111700421C04A403A118137E05C
:102760005721BE4A1170A821117093218900BB4ADC
:10277000403A11812CE05721B84A1170A8211170FC
:10278000B7494D31B54A403A118121E05721B34A4A
:102790001170A821117095218900B04A403A118129
:1027A00016E05721AD4A1170A82111704B21C900C4
:1027B000AA4A403A11810BE05721A84A1170A8217A
:1027C0001170A7495C31A54A403A118100E000BF71
:1027D00000BF00BD5721A14A1170A8211170002827
:1027E00008D19E4940390989521591439B4A403A84
:1027F000118108E0994940390989012252021143A7
:10280000964A403A118170475721944A1170A82185
:102810001170002808D191492039C97B04229143C5
:102820008E4A203AD17307E08C492039C97B0422B3
:1028300011438A4A203AD1737047F8B504462246BC
:10284000864E403E3689009686495726834F3E7015
:10285000A8263E70824E814F403F3E8157267F4FD3
:102860003E70A8263E700126BE747F4B4DE000BF2F
:102870007A4EB67C02273E40002EF9D0774E308A41
:1028800000BF764EB67C02273E40002EF9D100BF35
:10289000724EB67C02273E40002EF9D06F4E308A31
:1028A00057266E4F3E70A8263E7088420ADD6B4E5A
:1028B000203EB689B618694F203FBE811D46461A94
:1028C000B3B209E0654E203EB689B61A634F203F89
:1028D000BE811D460E1AB3B29D4216DA57265F4FCF
:1028E0003E70A8263E70884207DD5C4E203EB689C9
:1028F000B61A5A4F203FBE8106E0584E203EB68998
:10290000B618564F203FBE8100E0B0E700BF572603
:10291000524F3E70A8263E70504F403F009E3E8171
:1029200000264E4FBE74F8BDF0B5002700260024E7
:1029300022E0781C87B225460320FFF77EFF474838
:1029400020388489A54206DD281B032801DC0120EC
:1029500007E0002005E0601B032801DC012000E007
:102960000020002802D0701C86B200E00026032E52
:1029700001DC052F00DD00E0DBE700BF002722E0DF
:10298000781C87B225460120FFF757FF33482038CF
:102990008489A54206DD281B012801DC012007E00F
:1029A000002005E0601B012801DC012000E0002080
:1029B000002802D0701C86B200E00026022E01DC46
:1029C000052F00DD00E0DBE700BFF0BDF7B584B008
:1029D0000D4614461821049801F026F980B20390A0
:1029E0001821049801F020F9E120C00041431E2085
:1029F00068430818E10F09194910401887B201947B
:102A0000E007C00F002802D00120C00300E0002032
:102A100002903E463104029801430E4657200F496A
:102A20000870A82008700D494039039848630B4886
:102A30002038407C802108430849203948740748E1
:102A4000403846630846407C40210843034920390A
:102A5000487400200149087007B0F0BD40100040E4
:102A600002020000C4090000FFFF0000F0B585B0BD
:102A700004460D4616466048C06B8004800C0390E7
:102A80005D482030408B02905B482030008B0190E5
:102A9000029841000122D2030198904201DB0120FB
:102AA00000E000200F18E1210901384601F0BCF8D0
:102AB000014618220398504308182060E1210901BB
:102AC000384601F0B1F800913C21009801F0ACF8D3
:102AD00028803C21384601F0A7F8318005B0F0BDD0
:102AE0005721454A40321170A8211170424948636C
:102AF00041492031497C402211433F4A20325174E0
:102B0000704700BF3C49886B896B8142FAD170479E
:102B10005721394A40321170A821117036492031AD
:102B2000497C17229143344A203251741146497C22
:102B3000102202431143304A20325174704700B5CD
:102B40000346FFF7DEFFC21890B2002802D0012032
:102B5000000412182948824200D3121A572026492D
:102B600040310870A8200870234842632248203072
:102B7000407C2021084320492031487400BD014693
:102B800000200022002A01D020221043CA07D20FC1
:102B9000002A01D0102210435722174B40331A70DD
:102BA000A8221A70144A2032527C8243124B2033DE
:102BB0005A7470470146002905D10F482030007C27
:102BC0008022104070470C482030007C402210408A
:102BD000F8E7002802D001280AD104E02021064AA3
:102BE0002032117405E01021034A2032117400E0F4
:102BF00000BF00BF70470000001000400000C0A8E8
:102C000000B50B0009F070F8050412202E384200C0
:102C10009B4A526B82439A4B5A631A46126B824309
:102C20001A631A46126A82431A6230E0944A526B5F
:102C30008243934B5A631A46126B02431A631A4635
:102C4000126A82431A6222E08D4A526B02438C4B15
:102C50005A631A46126B82431A631A46126A8243F7
:102C60001A6214E0864A526B8243854B5A631A46B5
:102C7000126A02431A620AE0814A526B0243804B95
:102C80005A631A46126A02431A6200E000BF00BF8C
:102C900000BD00B50B0009F027F8050414243440EA
:102CA0004C00774A403252698243754B40335A6137
:102CB0001A46126982431A611A46126882431A60E0
:102CC00038E06F4A4032526982436D4B40335A615B
:102CD0001A46126902431A611A46126882431A6040
:102CE00028E0674A403252690243654B40335A61DB
:102CF0001A46126982431A611A46126882431A60A0
:102D000018E05F4A4032526982435D4B40335A615A
:102D10001A46126802431A600CE0594A403252695E
:102D20000243574B40335A611A46126802431A60F5
:102D300000E000BF00BF00BD002906D001290ED071
:102D4000022916D0032928D11DE04D4A928A8243D8
:102D50004B4B9A821A46D26A0243DA621EE0484A14
:102D6000928A8243464B9A821A46926A02439A6238
:102D700014E0434A928A0243414B9A821A46D26A2D
:102D80000243DA620AE03E4A928A02433C4B9A824C
:102D90001A46926A02439A6200E000BF00BF384BB5
:102DA00098831A46128A02431A827047002906D075
:102DB000012911D002291CD0032934D126E0304A40
:102DC000D28A82432E4BDA822D4A4032D2680243A5
:102DD0002B4B4033DA6027E0294AD28A8243284BC2
:102DE000DA82274A403292680243254B40339A6088
:102DF0001AE0234AD28A0243214BDA82204A403227
:102E0000D26802431E4B4033DA600DE01C4AD28A7E
:102E100002431B4BDA821A4A403292680243184B33
:102E200040339A6000E000BF00BF154BD8831A46BC
:102E3000528A02435A827047002807D0104A803ACB
:102E4000128B0A430E4B803B1A8306E00C4A803AF1
:102E5000128B8A430A4B803B1A837047002807D0A5
:102E6000074A803A528B8A43054B803B5A8306E0DF
:102E7000034A803A528B0A43014B803B5A83704786
:102E80008010004010B50446002C11D157209D49F8
:102E90000870A82008709B48203800880321490248
:102EA00088439849203908800020964908701FE01F
:102EB000572094490870A82008709248203800884C
:102EC000091508438F49203908800A2000F087F946
:102ED00057208C490870A82008708A48203800883C
:102EE0004915084387492039088000208549087022
:102EF00010BD002823D15722824B1A70A8221A70C5
:102F000080220A40002A07D07E4A403A927B022360
:102F10009A437C4B403B9A737A4A403A927A1C23FC
:102F20000B409A43774B403B9A72764A203AD27BC9
:102F30008B079B0F9A43734B203BDA7322E0572297
:102F4000704B1A70A8221A7080220A40002A07D0FB
:102F50006C4A403A927B02231A436A4B403B9A7375
:102F6000684A403A927A1C230B401A43654B403B17
:102F70009A72644A203AD27B8B079B0F1A43614BAB
:102F8000203BDA73704700280CD157225D4B1A7032
:102F9000A8221A705B4A403AD2680A43594B403B18
:102FA000DA600BE05722574B1A70A8221A70554A64
:102FB000403AD2688A43534B403BDA60704700285E
:102FC0000CD157224F4B1A70A8221A704D4A403A22
:102FD000927B8A434B4B403B9A730BE05722494B01
:102FE0001A70A8221A70474A403A927B0A43454B0E
:102FF000403B9A7370474448006904218843424922
:10300000086130BF704757203E490870A8200870FB
:103010003C484038C07B082188433A494039C8734E
:1030200000203849087038480069042108433649AF
:10303000086130BF0020334908707047572031497C
:103040000870A82008702F484038C07B082108432A
:103050002C494039C87300202A4908702A48006961
:10306000042108432849086130BF00202549087021
:1030700070475721234A1170A82111702149203926
:1030800009880322520211401E4A203A118011463B
:1030900009881E4A024311431A4A203A118000212E
:1030A000184A11701849096904221143164A11611E
:1030B00030BF0021134A117070475721114A117017
:1030C000A82111700F4920390988032252021140AA
:1030D0000C4A203A118011460988912212020243BB
:1030E0001143084A203A11800021064A117006490E
:1030F000096904221143044A116130BF0021014AC9
:10310000117070474010004000ED00E00491000095
:103110000146062904D1454800780822104070472E
:103120004248407901228A401040F8E757203F4941
:103130000870A820087008468079012108433B499F
:10314000887170473A49096801600021C943384ACB
:103150008032116070473649086070473548806991
:1031600070475721314A1170A8211170002806D1EB
:1031700011468979042291432C4A917105E02B492B
:10318000897904221143294A91710021274A11703B
:1031900070475721254A1170A8211170002806D1C7
:1031A0001146897902229143204A917105E01F4915
:1031B0008979022211431D4A917100211B4A117025
:1031C0007047572019490870A82008700846807970
:1031D000102108431549887100200870704710B508
:1031E00000210AE0022201E000BF00BF1346541E86
:1031F000A2B2002BF8D14B1C99B28142F2DB10BD78
:1032000030B50446002505E07D20C000FFF7E7FF4C
:10321000681C85B2A542F7DB30BD00BF064AD27AF2
:10322000082AFBD0044B1872704700004010004081
:1032300000E100E000E000E00034004070B504462A
:1032400021462D4800F0F0FC05460A21681D00F0DB
:10325000EBFC054629498D8170BD10B5E120400287
:10326000FFF7ECFF8720254988700320C8704020B5
:1032700048700120887310BD20498978C02291438D
:10328000820111431D4A9170704700280BD01B4AE0
:1032900052780A43194B5A701A46127808231A4377
:1032A000164B1A7004E0154A52788A43134B5A7031
:1032B0007047802011494870704710B50A4609E0F0
:1032C0000E4BDB7A082B05D003780C4C2372401C84
:1032D000531E9AB2002AF3D110BD0146002005E02A
:1032E000064A127A0A70491C421C90B2034A927A2A
:1032F000002AF5D170470000005A620200340040F5
:10330000002027490870CC2008734873254800889E
:103310000882254800888882244800880883244839
:103320000088888302201E4920318870122088710D
:103330008872887302208874FF20194988710720D9
:1033400088700020C870292008708120487070475C
:10335000134920310871897989088900104A20327F
:10336000917170470E4920310872897A8908890065
:103370000B4A203291727047094920310873897BCA
:1033800089088900064A2032917370470449203128
:103390000874897C89088900014A20329174704739
:1033A00000800040B8440020BC440020C0440020FD
:1033B000C44400200448804704480047FEE7FEE775
:1033C000FEE7FEE7FEE70000712600009100000026
:1033D000F8B505460E46174674480078FF2811D008
:1033E000042012F0D3F80446002C09D0C02020702D
:1033F0006770A570E67021466C48007812F034F9C9
:103400000020F8BD0120FCE770B504460D461646C5
:10341000324629462046FFF7DBFF002800D000BFD8
:1034200070BD70B505460C46614805706148046082
:103430005F480078002809D05F48007801280BD148
:1034400002215E48007812F0C5FB05E064220221EB
:103450005A48007812F076FB01205749087070BD79
:1034600010B500205649087052490860524908704A
:103470005448006A012109038843524908620846FA
:10348000006B891408434F49086301210803FFF7C3
:10349000B7FB01214803FFF7B3FB01218803FFF7C6
:1034A000AFFB0121C803FFF7ABFB47490020FFF743
:1034B000B8FF10BD3D490870704700204149496A76
:1034C000012212031140002901D1012108433D4985
:1034D000496A012252031140002901D10221084307
:1034E0003849496A012292031140002901D104217F
:1034F00008433449496A0122D2031140002901D10D
:1035000008210843704770B500242D4805782D48E0
:10351000406A012109030840002801D10120044329
:103520002848406A012149030840002801D10220AF
:1035300004432448406A012189030840002801D13E
:10354000042004431F48406A0121C90308400028A1
:1035500001D10820044316480078002806D11848F5
:103560000078844200D170BD15480470AC4209D087
:1035700010480068002805D00022294620460D4B3F
:103580001B68984700BFEEE70020704710B5002485
:10359000002C05D0192202210848007812F0D2FA36
:1035A00010BD704700B5FFF788FF00BDC94400207B
:1035B000C8440020CC440020CB440020D344002049
:1035C000CA4400208010004009340000C207D20F16
:1035D000002A0DD0012905D1E34A92688A43E24BC3
:1035E0009A6005E0E04A926801231A43DE4B9A6034
:1035F00002220240002A0ED0012906D1DA4A92683E
:1036000002239A43D84B9A6005E0D74A9268022376
:103610001A43D54B9A6004220240002A0ED0012999
:1036200006D1D14A926804239A43CF4B9A6005E0B1
:10363000CD4A926804231A43CB4B9A600822024079
:10364000002A0ED0012906D1C74A926808239A435E
:10365000C54B9A6005E0C44A926808231A43C24BDE
:103660009A60002905D0C14A12780243BF4B1A70F4
:1036700006E0FF224240BD4B1B781A40BB4B1A703C
:103680007047F8B505460E46330008F02DFB0917C4
:103690001606360E3636361836007D23DB00052238
:1036A0000121284600F02DF828E07D23DB000522CB
:1036B0003221284600F025F820E000BF00BF012796
:1036C0002D072D0FAA4C15E02846384000280ED0B3
:1036D000082E01D0267003E0207801214840207098
:1036E00021783846FFF772FF28467840054678066D
:1036F000070E0C34002DE7D100E000BF00BF002012
:10370000F8BDFFB581B005461746002D41D0002F0A
:103710003FD0049800283CD0642F35DA01262D07CD
:103720002D0F934C27E028463040002820D030460B
:103730008E49097808408F49097808438D490870F7
:10374000002020700498A080A770029860700298F2
:10375000002803D1207804210843207008F0E2F902
:10376000A06020780221084320702846704005465A
:103770007006060E0C34002DD5D1002201217E48A2
:10378000007812F0DFF908E001212846FFF779FF01
:1037900003E000212846FFF774FF05B0F0BD10B527
:1037A00071480068012108436F49086008460068B5
:1037B000022108436C490860084600680421084358
:1037C000694908600846006808210843664908609E
:1037D00000210F20FFF755FF7D23DB001E220A2169
:1037E0000120FFF78EFF002161482030017410BDD9
:1037F000FEB5002701250F2001905D4C20462030AA
:10380000007C00287ED178E001982840002871D003
:10381000207802210840002869D008F083F9064684
:10382000A168B14256D82078C007C00F00281FD029
:10383000A0786421081AC0B20290207840084000A5
:10384000207000212846FFF7C1FE2078042108409F
:10385000002816D16078FF2802D06078401E607082
:10386000607800280DD1207802214840207008E0BF
:10387000A078029020780121084320702846FFF7A5
:10388000A5FE20780221084000280CD0A188029AC9
:1038900051430846642100F0C7F980B200900098B7
:1038A0003018A0601AE000200090324800782840CC
:1038B000002801D0012000E0002001462846FFF743
:1038C000E0FE2846FF2148402A4909780840294956
:1038D000087003E02089801B80B20090002F05D083
:1038E0000098002803D00098B84200DA009F0198A1
:1038F000684001906806050E0C340198002883D1B9
:10390000002F00E006E005D03A4601211A48007871
:1039100012F018F9FEBD15480078704700B5012176
:1039200013482030017400201449087008460078BC
:103930000870084600780870084600780870084645
:103940000078087000210F20FFF740FE00BD10B581
:1039500001210A480078FFF739FEFFF749FF0021EF
:1039600003482030017410BDC0100040D044002036
:10397000EC4B0020D2440020D3440020D14400204E
:1039800030B593B0122276A17A4811F031FD0028AB
:1039900004D179A008F080F900BFFEE757207B49E9
:1039A0000870A82008705120C0007849403908816B
:1039B0000020764908704822002101A811F0DEFDA0
:1039C000734801900120000302907248039001980F
:1039D000002804D0012109030298884201D200BFC7
:1039E000FEE701A801F040F8C5B2002D04D06AA09E
:1039F00008F052F900BFFEE76C4C601E411C884283
:103A000000D90CE0601E6A4948610321081F00F0DC
:103A100070F80020664988610720086100BF64488B
:103A200000690221884362490861624808F0A6F8EB
:103A300013B030BD70B506460C460120C0032040CF
:103A400000280DD0304611F0D7FD0546002D02D0DC
:103A5000284611F0AFFD20460121C903484070BD42
:103A6000E007C00F002805D0FFF7C2FE2046012165
:103A70004840F4E70220204000280BD0FFF743FD28
:103A80004D480078002805D1102202214B480078CB
:103A900012F058F801208003204000280FD048A0E1
:103AA00008F0FAF84B22920101218903434800787B
:103AB00012F048F82046012189034840CFE7002052
:103AC000CDE710B504463D48047000F099F8102188
:103AD0000120FFF70EFAFFF762FEFFF7C1FC62B6A6
:103AE0007D22D200012189033448007812F02AF89F
:103AF00010BD10B5002819DA324A03071B0F083B26
:103B00009B089B00D2588307DC0EFF23A3409A43F7
:103B10008B071B0E8407E40EA3401A43294B0407AE
:103B2000240F083CA408A4001A5118E0264A0323D5
:103B30001B02D21883089B00D2588307DC0EFF2398
:103B4000A3409A438B071B0E8407E40EA3401A433D
:103B50001D4B032424021B198408A4001A5110BD14
:103B600043483537785F424C455F4C49425F563198
:103B70002E32000040610100686561642066696C56
:103B800065206572726F722E2E2E0A004010004062
:103B9000204C002000EE03004C494220696E6974FD
:103BA000206572726F722E2E2E0A0000FFFFFF003A
:103BB00000E000E05D310000C8440020D344002054
:103BC0002A2000001CED00E000E100E081B20029A5
:103BD00002D00121090440185721104A1170A82170
:103BE00011700E494039486300210D4A1160704739
:103BF00030200A49203908740120094908607047BB
:103C000010B5FEF791FE074807F0BEFF00221146EF
:103C10001046FEF7DBFE08F001F810BD4010004032
:103C2000D44400202929000030B50B46014600206D
:103C30002022012409E00D46D5409D4205D31D46B2
:103C40009540491B2546954040191546521E002DAA
:103C5000F1DC30BD70B500242546002801DA0124CE
:103C60004042002901DA01254942FFF7DDFFAC425D
:103C700000D04042002C00D0494270BDF0B51FB4C6
:103C800086B000200090019002900698069980B2BC
:103C900004900798090C02040014114307900027B0
:103CA000089D099806913E463C4603900398A9B2A8
:103CB0000204000C039004982D0C15434843002186
:103CC000224600F018F8C719714110340E46402CF6
:103CD000ECDB3846029A00F00EF8009A019B80183F
:103CE0000090594102980191103002904028CCDB9D
:103CF00000980BB0F0BD10B5202A04DB0146203A35
:103D00009140002010BD914020239C1A0346E340BF
:103D10001943904010BD03460B439B0703D009E0B5
:103D200008C9121F08C0042AFAD203E00B780370F6
:103D3000401C491C521EF9D27047F0B51FB406460C
:103D4000002082B005464024019100901BE00199BB
:103D500022460F46304600F033F8049A059B801A3D
:103D6000994110D3104619462246FFF7C4FF361A70
:103D70008F410197224601200021009FFFF7BBFFE2
:103D800038184D4100902046641E0028DFDC019B5E
:103D900000982946324607B0F0BD0000064C0125C8
:103DA000064E05E0E36807CC2B430C3C98471034E3
:103DB000B442F7D3FCF770F998610100B8610100D3
:103DC00010B5202A04DB0846203AD040002110BD5F
:103DD0000B46D340D0402024A21A914008431946F4
:103DE00010BD70B58C180578401C6B075B0F01D1B6
:103DF0000378401C2A1106D10278401C03E00678A3
:103E00000E70401C491C5B1EF9D12B0705D4002302
:103E1000521E0DD40B70491CFAE70378401CCB1AD4
:103E2000921C03E01D780D70491C5B1C521EF9D5D5
:103E3000A142D8D3002070BDF0B5504C23681D6856
:103E40000626B5431D60467805783602AD1986789A
:103E5000C77836043F06F619AD199D624679057993
:103E60003602AD198679C77936043F06F619AD19C1
:103E7000DD62467A057A3602AD19867AC77A36044B
:103E80003F06F619AD191D63467B057B3602AD1959
:103E9000867BC07B360400063018281858634D789E
:103EA00008782D0240198D78CE782D043606AD198C
:103EB000401998614D7908792D0240198D79CE7994
:103EC0002D043606AD194019D8614D7A087A2D02B5
:103ED00040198D7ACE7A2D043606AD194019186234
:103EE0004D7B087B2D0240198D7BC97B2D04090673
:103EF0006918401858625868022188435860586809
:103F000001252843586018682843186058688007BE
:103F1000FCD558688843586098691070206880699B
:103F2000000A507020688069000C907020688069D9
:103F3000000ED0702068C1691171C169090A517100
:103F4000C169090C9171C169090ED171016A1172BF
:103F5000016A090A5172016A090C9172016A090E1B
:103F6000D172416A1173416A090A5173416A090C9D
:103F70009173406A000ED0730020F0BD30480020DD
:103F8000024901480860704700C3004030480020E3
:103F900030B5264B1968C90517D5032119600121D1
:103FA0000825491C1C68C9B22C431C6006E01C682B
:103FB000A40508D4491CC9B2202904D81C68E4050A
:103FC000F5D50029EDD10021196019491368096858
:103FD0000B6152684A61174A13688B615368CB6161
:103FE00093680B62D2684A62124B10331A688A6275
:103FF0005C68CC629C680C63DB684B630D4B2033C0
:104000001C688C605B68CB600B682024C007A343EE
:10401000800E03430B600868402318430860886AD9
:10402000904201D0012030BD002030BD80C300404F
:104030003048002058690020F0B5454B00241B682B
:104040001C601C615C618578C4782D026419457818
:1040500006782D043606AD1965193E4CAE46E5606E
:104060008679C5793602AD194679077936043F0657
:10407000F619AD19A560AC46867AC57A3602AD1937
:10408000467A077A36043F06F619AD196560877BD4
:10409000C67B3F02F619477B007B3F0400063818B9
:1040A000301820609861DD6165461D6275465D626D
:1040B0004C780878240200198C78CD7824042D06D9
:1040C000641906192348B446103006604D790C79FE
:1040D0002D0264198D79CE792D043606AD19651936
:1040E00045604E7A0C7A3602A4198E7ACF7A36045D
:1040F0003F06F619A41984604F7B0E7B3F02F61928
:104100008F7BC97B3F040906791871186646C16028
:104110009E62DD621C635963517810780902401871
:104120009178D4780904240609190A4C40182034DF
:104130002060557911792D0249199579D2792D048C
:104140001206AA18891861609860D960F0BD000055
:10415000304800205869002010B504F0D9F9024910
:1041600002F0B9FE002010BD0604000008B50028CA
:1041700008D0002906D0002A04D01088002801D0D9
:10418000002008BD1220694608706A4601210348D4
:1041900002F09DFE6946087808BD0000350C00005D
:1041A00008B503F0CFFC694608706A460121034850
:1041B00002F08DFE6946087808BD0000112000005D
:1041C00008B503F047FF694608706A4601210348B5
:1041D00002F07DFE6946087808BD0000102000004E
:1041E000FEB508AF70CF6F4670C703F059FF0446A5
:1041F000024902F070FE2046FEBD000013200000C0
:1042000008B504F075F9694608706A46012102484C
:1042100002F05DFE002008BD0E20000038B5044607
:1042200004F068FC694608704C70200A88706A4681
:104230000321024802F04BFE002038BD1B20000085
:1042400038B5044604F06CFC694608704C70200ACE
:1042500088706A460321024802F039FE002038BD0A
:104260001A2000000EB500A8013005F040F969469B
:1042700008706A460921024802F029FE00200EBD9E
:104280001820000008B500A8013004F0BFFB694603
:1042900008706A460421034802F019FE694608784E
:1042A00008BD0000022000007FB5044608A861C8D0
:1042B000009002960195204605F080F96946087342
:1042C0004C73200A887303AA0321034802F0FFFD00
:1042D000002004B070BD00002020000008B505F0EB
:1042E0008DFD694608706A460121034802F0EFFD22
:1042F0006946087808BD00000820000008B505F0F0
:1043000007FD694608706A460121034802F0DFFD97
:104310006946087808BD00000A200000F0B585B0A5
:104320000AACF0CC03976F4670C705F083FD694671
:10433000087404AA0121034802F0C9FD6946087CFB
:1043400005B0F0BD0620000008B505F0C9FD6946BE
:1043500008706A460121034802F0B9FD69460878F1
:1043600008BD00000520000008B505F0F9FD69460C
:1043700008706A460121034802F0A9FD69460878E1
:1043800008BD00000C20000008B505F029FE6946B4
:1043900008706A460121034802F099FD69460878D1
:1043A00008BD00000920000010B505F0E9FF024932
:1043B00002F091FD002010BD192000001CB500A8DE
:1043C000013005F0A3F8694608706A4607210348E2
:1043D00002F07DFD694608781CBD00000910000050
:1043E00038B500A90446033105F0A0F86946087005
:1043F0004C70200A88706A460421024802F067FD6A
:10440000002038BD0514000010B5D2B205F007FC3D
:1044100010BD0A7802708A7842704A88120A827047
:104420000979C170042070470A7802700988090A66
:1044300041700220704708888004000C70478A7819
:10444000027088780128088804D012214843401C53
:1044500080B270478000FAE70A7802700A88120A70
:1044600042704888801C80B270470A7802700A88BF
:10447000120A42708A7882704A88120AC27088884A
:10448000001D80B27047088870478A7802700888DB
:1044900049884843401C80B270478A780270088877
:1044A00049884843401C80B2704708887047088894
:1044B00070477FB515460446022901D0102903D163
:1044C000022B04D0102B02D0002004B070BD994202
:1044D00002D10A46294607E01029694607D000F0B4
:1044E0000DF810226946284610F082FFEDE71046CD
:1044F00000F004F8102269462046F5E770B50C4636
:1045000005000CD0002C0AD010220649204610F0DD
:104510007DFF2878207368786073012070BD0020CB
:1045200070BD00008861010008B500220B460092B2
:104530000122024907F072FE08BD0000134400008A
:1045400008B50A88172A07D300220B4600920322D7
:10455000024907F063FE08BD022008BD294400009F
:1045600008B500210B461922009107F057FE08BD3F
:1045700038B5054608880C4600280DD0606800282C
:104580000AD0012110F0F0FE0090234607220349D3
:10459000284607F043FE38BD022038BD37440000EE
:1045A00038B5054688780C46012801D0022810D17C
:1045B000208800280DD0606800280AD0022110F061
:1045C000D3FE0090234605220349284607F026FE25
:1045D00038BD022038BD00003F440000064910B538
:1045E000884202D103F05CF810BD0CF01FFC0028DB
:1045F000FAD1172010BD0000FEFF000038B50546B7
:104600004A6800200C46002A03D00321104610F00F
:10461000ABFE009023461D220249284607F0BAFD52
:1046200038BD00005944000038B505464A680020EE
:104630000C46002A03D00321104610F095FE00908E
:1046400023461B220249284607F0A4FD38BD00007E
:10465000594400000098022B01D004207047517883
:104660001278090211430180002070470098012B45
:1046700001D004207047117801700020704770B598
:10468000049C1E461546062B1BD368782978000229
:1046900008432080E878A97800020843608002205F
:1046A00020710246291D601D10F0B0FEB01F208150
:1046B000062E03D0AD1DE560002070BD0020E06037
:1046C000FAE7042070BD0098042B01D00420704745
:1046D00051781378090219430180D1789278090240
:1046E0001143418000207047F8B584890D46002CA5
:1046F0002BD086683778390601D4002010E00D2CC5
:1047000023D30C3CA4B23119009140882346324691
:10471000012107F0FFF8002801D0022000E001206D
:1047200079062870C90FBA066970920EAA70641EC5
:104730002204120CAA8002D0761CAE6001E0002296
:10474000AA60022803D1002901D00120F8BD002071
:10475000F8BD10B50298042B14D3517814780902CF
:1047600021430180D1789478090221434180191FA7
:104770008180042B02D0121D826001E00021816043
:10478000002010BD042010BD0098042B01D004208F
:10479000704751781378090219430180D1789278D3
:1047A0000902114341800020704710B5029811465C
:1047B000062B03D0142B03D0042010BD022200E0EE
:1047C000102202714A780B7812021A430280CA78CA
:1047D0008B7812021A4342800279401D091D10F0A5
:1047E00015FE002010BD0098D90706D1022B04D079
:1047F00059088180026000207047042070470098AB
:10480000022B01D00420704751781278090211431D
:1048100001800020704710B5029C022B11D320723A
:10482000617250781178000208432080981E6080E1
:10483000022B02D0921C626001E000206060002028
:1048400010BD042010BD000038B5054688680C4630
:10485000002802D0052110F087FD00902346172282
:104860000249284607F0DAFC38BD00006B4400001E
:1048700038B5054648680C46002802D0012110F0E2
:1048800073FD009023460D220249284607F0C6FC1E
:1048900038BD00008744000038B5054608880C463E
:1048A00000280DD0606800280AD0022110F05CFDBD
:1048B0000090234611220349284607F0AFFC38BD7B
:1048C000022038BD8B44000038B5054608880C46E8
:1048D00000280DD0606800280AD0022110F044FDA5
:1048E0000090234609220349284607F097FC38BD6B
:1048F000022038BD9B44000038B5054648680C4688
:1049000000280AD0012110F02FFD009023460F222D
:104910000349284607F082FC38BD022038BD00005C
:10492000AB44000038B505464A6800200C46002A12
:1049300003D00121104610F017FD009023460B22F2
:104940000249284607F06AFC38BD0000AF44000069
:1049500001490860704700005448002070B50546C2
:1049600008480C46854205D0172C03D302F098FE68
:10497000A04201D2012070BD214628460CF0D4FA95
:1049800070BD0000FEFF000008B500210B46132299
:10499000009107F043FC08BD0849074848600A78C1
:1049A000FF2A01D125220A70D1B2054A11430160C4
:1049B0000449C1627047000000C100403448002033
:1049C00080220801384E010030B58006094A800E69
:1049D000094C107021684D68FF2301339D434D60E1
:1049E00006490843516808602068416819434160DE
:1049F00030BD0000344800204448002080220801D7
:104A000080060449800E0870034A49681043086014
:104A10007047000034480020C022080102490020ED
:104A200049688863704700003448002010B5FFF7DC
:104A3000A7FA00F0DFF802F099FF05F03BFEFFF760
:104A4000ABFF084C5D202168086505F0FFFE06F00D
:104A50001BFD05F0C3FE05F095FE216800200865EA
:104A600010BD00004048002030B504464822002117
:104A70003A4810F083FD206800280BD0374D28609D
:104A80006068002808D06860A068A860E068002816
:104A900004D005E0012030BD022030BD01204002DD
:104AA000E86020690121002804D02861606900289D
:104AB00002D002E02961F9E71B206861A0690028A3
:104AC00000D10A20A861E069002810D0E861206ABE
:104AD00000280ED08006800E2862E06B00280AD0E5
:104AE000E863606A002808D0E96B401807E0E961D4
:104AF000EDE71520F0E71E20F2E7E86B463068622C
:104B0000A06A002800D0A862E06A00280AD0E86203
:104B1000206B002800D028633920005D800902281E
:104B200002D008E00420F2E70C4821460622343186
:104B3000343010F06BFC216C002907D0606C002829
:104B400004D0800002D52964606C03E0044800783A
:104B5000286404486864002030BD0000985C002090
:104B6000784000204040002070B500200E210B4B03
:104B70000124A4035A8815462540CD405204120C46
:104B80000543E8B25604D50BF60F75401543491E90
:104B9000C9B25D800629EDD870BD000048480020EC
:104BA00070B5002008210A4B4C011A881546254093
:104BB000CD4005435200E8B2550A56097540ED074D
:104BC000ED0F1543491E09061D80090EEDD170BD7C
:104BD0004848002000220AE0022101E000BF00BF97
:104BE0000B46491E89B2002BF8D1521C92B2824268
:104BF000F2D370470949084808600949CA68026148
:104C0000426109698161C161826841140A4382601D
:104C1000C2680A43C260704700C000403C480020A0
:104C2000605D00200246FD2008498C234B723F2323
:104C30001B039A4205D24A60A6200872887A402255
:104C400050404A7A73231A404A7270470018004055
:104C5000F8B500240E4F26460E206043C5190622E3
:104C6000FF21284610F08AFCA81D0622FF2110F023
:104C700085FC0848AE810655641CE4B2032CEBD3D6
:104C8000002010F0C7FD0349032014394873F8BD14
:104C9000EC680020B047002070B50C4601460120AA
:104CA00080020A1A00251D48130007F01DF80F099D
:104CB0000B0D1012141A1C1E2C21232527292C0041
:104CC000007802E0008A23E04078207023E08078BA
:104CD000FBE7C078F9E710221149204610F096FB57
:104CE00019E00079F1E7C079EFE78069206012E010
:104CF0004079EAE78079E8E7007AE6E7C07AE4E716
:104D000007F0DCFEE1E7272904D2084601F042F86B
:104D1000208000E00225284670BD00009C4700204E
:104D2000DC68002010B50249C87307F0F5FF10BD1C
:104D30009C470020FFB58FB0054600200C900D90D9
:104D40000CAA284600F01EFA434E0446032855D20A
:104D500007F0C1FF05463078022819D000200090E6
:104D60002A462146129B119807F080FE142200214A
:104D700001A810F003FC062027464743384624309C
:104D8000C0B201AA102110F0A7FD002802D014E043
:104D90000120E4E71022FF2101A810F01AFB0028EF
:104DA0000BD12537F8B205AA042110F095FDE907CB
:104DB000C90F01AA119801F0DFF97034E0B206AA18
:104DC000182110F089FD002811D106A807F095FFE1
:104DD000002406AFA000C0190188002903D0827802
:104DE000119801F0ABFC641CE4B2062CF2D3A807C6
:104DF00007D5F17B119801F08FFC02E0129808288A
:104E000003D01298042813D022E0307802281FD152
:104E100000222946119807F0B5FDF069002817D047
:104E20004368002B14D000221146119898470FE0D8
:104E3000307802280CD13079119A002800D0012056
:104E40007178002900D004210143104601F060F977
:104E5000002013B0F0BD00009C47002070B501F0A9
:104E60001FF8002822D1124C0025207B012806D0F3
:104E70000F4E00241436305D01280AD00DE007F0F3
:104E800064FE0B48257303220021143010F076FBDA
:104E900007E0204607F066FE3555641CE4B2032C9B
:104EA000E9D3502010F0C2FC07F036FF70BD0000BF
:104EB0009C47002070B50024054600290BD1084905
:104EC0001046FEF7B1FE0846294601F009F8040035
:104ED00003D00121284601F077F9204670BD00007B
:104EE00040420F0070B5264D0C4608040FD5E87BF4
:104EF00010F082FB050006D007F0A0FF002802D0CA
:104F0000284610F057FB0120C003604070BDA00789
:104F10000BD50021084607F099FC02214C400028DF
:104F200025D1E87B10F064FC1FE0E00721D0286A5F
:104F3000808807F0B5FF01214C40002817D0E869B0
:104F400000280DD04368002B0AD0286A00228088F0
:104F50009847E969286A00224B68808803219847AE
:104F6000062010F099FC07F063FC204670BD01217B
:104F7000D7E7600702D50420484070BD002070BD0F
:104F80009C4700207FB504468078754D801F030044
:104F900006F0AAFE0AE1E4E4941B06DDE469A8E455
:104FA000E869002808D00668002E05D0637B227BC4
:104FB0006189E01CB047D1E06189A86900F090FFE9
:104FC0000028F8D060890121BBE060780026002825
:104FD00030D1A079C0072DD0286A00282AD10E220E
:104FE0000021684610F0CAFA6169002903D0062240
:104FF0006846103107E0A0880BF0BEFE002870D094
:10500000811D0622684610F001FA69468889A17957
:105010004907C90F08436946888107F04FFD0328F7
:1050200001D1FFF715FE2146684607F00FFC002866
:1050300012D01526E869002853D04368002B50D0C1
:105040006278A08801219847002E4AD0E969A0889B
:105050004B683246032171E00221E87B10F0C8FB67
:10506000002004B070BD6078062817D1A0880BF02E
:1050700083FE060012D0A87A012804D0022808D0A6
:1050800003280BD114E07179A088002207F07AFC84
:1050900004E0A1883078052201F0A6F8E86900282C
:1050A0005CD04368002B59D06278A088022145E08B
:1050B000002211462B4800F0F7F8EAE7E0780022DA
:1050C000211D00F05FF8032848D20621484325300F
:1050D0002246C0B20C32042110F03EFC032010F036
:1050E000DBFB3BE06879002802D0A088A97928E0A2
:1050F00028780028A08823D00BF03EFE06002DD093
:10510000A07AC0070BD07079002808D0A189890542
:1051100005D46A46B11D00F035F8002814D02246A7
:105120007179A088083207F02DFCE869002815D0B5
:105130004368002B12D00022A088114698470DE04A
:10514000052101F041F809E0A0880321F9E7A088D2
:1051500000F06EF902E0A088FFF780FE012080E7F2
:105160009C4700200904000010B5054CE061E17B7C
:10517000262000F0F1FFE07B01F07CFA10BD00007A
:105180009C470020F0B5032485B015460F46002843
:1051900007D0012805D00326022810D0032847D1C4
:1051A00020E0084607F056FD0446032840D2002DB3
:1051B0003ED006223946284610F028F938E01E4F26
:1051C000002400910E206043C0190622801D009922
:1051D00010F00EF9002823D1641CE4B2032CF1D3A3
:1051E00034461DE000242046062148432330C0B247
:1051F0006A46102110F070FB00280CD11022FF210C
:10520000684610F0E6F8002805D13946684600F0F7
:105210005BFF002804D0641CE4B2032CE3D3DFE777
:10522000032C05D2002D03D02946204607F038FD77
:10523000204605B0F0BD0000EC68002070B50E46B9
:1052400017491525884212D10024324602212046F2
:1052500007F04CFC002800D00025641CE4B2032CAD
:10526000F3D3002E1AD00F480BF000FE16E00BF01F
:1052700083FD040011D060790022A11DFFF782FF99
:10528000032804D23246022107F030FC0025002E0C
:1052900004D0204607F06EFD00E01425284670BDBE
:1052A000FFFF000075CD0000FEB5154601229202F9
:1052B000821A002401275B4E130006F015FD130B24
:1052C00012171E252C343B4048737A828AA89653C5
:1052D0009DA4A800012973D12878022870D83070C5
:1052E0009DE002296CD12888308298E0012967D19D
:1052F0002878012864D8707091E001297ED128783F
:1053000004287BD8B0708AE0012977D12878012859
:1053100074D8F07083E0102970D1102229464248D9
:1053200010F074F87BE0012968D12878012865D84D
:10533000307174E0012961D12878F0716FE004299F
:105340005CD13A492868884258D8B06167E00029A2
:1053500054D100F0A5FD002801D037735FE007F0BD
:10536000F4FB19E0072949D10622691C684610F0B0
:1053700035FA287800226946FFF704FF054603281E
:105380000ED200F08DFD002803D02648143047557A
:1053900045E0284607F0E6FB502010F047FA21E0F0
:1053A00002243CE0012929D12878012826D87071EF
:1053B00035E0012922D1287809281FD8B0712EE0C4
:1053C0001CE001291AD12878C11F092916D830728A
:1053D00025E0012912D1F17A2878F07200291ED136
:1053E00001281CD107F098FC19E0012906D1287882
:1053F000032803D8B07212E0012901D018240EE06E
:105400002878B0730BE0002010F046FA07E0272858
:10541000C6D20229C4D1298800F09EFE0446204647
:10542000FEBD00009C470020DC6800203F420F00CA
:10543000FEB5064600200190029030460BF09CFC21
:10544000040015D0134F3878022811D0607901AAD2
:10545000A11DFFF797FE054603280AD207F03BFC83
:1054600002460120009008232946304607F0FEFA44
:10547000FEBD3878002807D00128F9D161790022D3
:10548000304607F07FFAFEBD0521304600F09CFE55
:10549000FEBD00009C470020F8B50F4613491525B6
:1054A000164688420DD1002432463946204607F080
:1054B0006BFC002800D00025641CE4B2032CF3D35D
:1054C00012E00BF059FC00280DD04379811D002219
:1054D0001846FFF757FE032806D23246394607F032
:1054E00053FC002500E014252846F8BDFFFF00000E
:1054F00070B50C460146032000020A1A0025344804
:10550000130006F0F1FB1D1012151C1F2326282C7A
:10551000303234383A3C3E40424446484A4E50527B
:105520005A5456585A00407811E01022294902E096
:1055300028491022103120460FF068FF45E0406AEC
:10554000206042E0224906223431F4E7C07820701E
:105550003BE0C08936E01E4982783A31EBE71D49CD
:1055600002791F39E7E7407AF1E7807AEFE71849D7
:1055700006222831DFE7C07AE9E7007BE7E7008A07
:1055800020E0408A1EE040791CE0808A1AE0C08A50
:1055900018E0008B16E0408B14E00D4906222E31F6
:1055A000C9E7808B0EE0C08B0CE0008C0AE0007A2B
:1055B000CDE78079CBE7C079C9E7272904D208462F
:1055C00000F0E8FB208000E00225284670BD0000C6
:1055D000C44700203569002010B51E49002408701A
:1055E0001D491E4A0C70611E118000F067FD1C49A8
:1055F00004200870102200211A480FF0BFFF10226B
:10560000002119480FF0BAFF18481B4904601848D8
:10561000144A0470174804700720087017481021B6
:105620000470022010F058F90F4A1021032010F0E6
:1056300053F910220B4912480FF0E8FE10481022CF
:10564000094910300FF0E2FE0421084A084610F024
:1056500043F910BDC4470020CC470020D4470020A8
:10566000C54700203569002045690020E847002033
:10567000CD470020CE470020CF470020D047002054
:10568000BC680020FEB5444D0C4608040CD52878B3
:105690000FF0B2FF050004D008F070FC28460FF0B0
:1056A00089FF0120C00373E060040AD504213B4A4E
:1056B000084610F051F9022010F0EEF801208003A6
:1056C00066E03749E20701270878364E002A2FD0D6
:1056D000354A1278002A24D0052825D03348694657
:1056E00000780870324806220078487000A83149D6
:1056F00002300FF08BFE30486946007808722F4860
:1057000000784872287800F061FB002809D024490D
:10571000072008707168002903D00968002900D0AB
:10572000884720467840FEBD032069460870E2E7BE
:10573000A1070FD505280BD12148008801F09AFC5C
:1057400020480288002A03D00221287810F0FAF9B4
:1057500002201DE0600704D5002008F055FC04205D
:1057600016E0200716D53078012802D002280ED185
:105770000BE01548009703881448028814480188F4
:105780001448008800F028F801E000F089F80820AB
:105790006040FEBD0020FEBDC4470020E847002059
:1057A000CC47002090470020C7470020CD4700206D
:1057B000CE470020EC470020CF470020D0470020F4
:1057C000D4470020D6470020DE470020DC470020D9
:1057D000DA470020D847002070B5164C049D247885
:1057E000052C01D0142070BD134E841FB4421ED26C
:1057F00006291CD3B41DA14219D2FF26F536B242A8
:1058000015D20A2B13D3A34211D20C4C20800C4882
:1058100001800C4802800C480380284608F0F4FB05
:105820000A480421007810F0D5F9002070BD182036
:1058300070BD0000CC4700207A0C0000D847002043
:10584000DA470020DC470020DE470020C447002064
:105850001CB50C490978002901D011201CBD002875
:1058600001D0094948600A48009008490A48019156
:1058700001780A48074B0022007800F021FA002046
:105880001CBD0000CC47002090470020E8470020C6
:105890004569002035690020C5470020C447002025
:1058A00010B507480078052801D0122010BD054822
:1058B000132201880448007800F096FC10BD000017
:1058C000CC470020D4470020C4470020F7B50D4640
:1058D0008649009816464218854F00243878397A50
:1058E000130006F001FA1C0F151CF62141465A71EF
:1058F000787F8990F697A3AAB5C0C9F6F6F6F6D4D4
:10590000F6EAF1F6102D76D11022314679486FE093
:10591000102DF8D1774810223146103068E0042D60
:1059200069D130687862DAE0012D64D1FB78327891
:10593000FA70002B0AD0002A07D1022903D00629C9
:1059400001D0042901D100F0FBF9C8E0002A0AD0F7
:10595000012905D0032903D0052901D0042902D14A
:1059600001210FF045FFBAE0022D44D13088F881C3
:10597000B5E01F2D3FD85E481F2200213A300FF0BE
:10598000FDFD5B482A4631463A300FF03FFD584B4B
:10599000BD703A332A46012112E01F2D2BD85548FD
:1059A0001F2200211F380FF0E9FD52482A463146D8
:1059B0001F380FF02BFD4F4B3D711F3B2A46002136
:1059C000387800F057FC8FE0012D74D1307804282E
:1059D00071D8787283E0012D6DD1307803286AD8B0
:1059E000B8727CE0062D66D1414806223146283047
:1059F0000FF00CFD73E05EE0012D5CD130780728DC
:105A000059D8F8726BE0012D55D13078032852D85F
:105A1000387364E0022D4ED132887A82002A5ED03B
:105A200005295CD1022110F08DF858E0012D42D1FA
:105A3000307801283FD8787151E03088022D3AD172
:105A4000062838D31921C901884234D8B88246E0E3
:105A50003088022D2FD106282DD31921C901884263
:105A600029D8F8823BE03088022D24D1FF21F5317E
:105A7000884220D2388332E03088022D1BD10A2898
:105A800019D31921C901884215D8788327E03178C4
:105A9000012D10D101290ED108210FF091FC002811
:105AA00001D016241BE0002008F0AEFA042138785B
:105AB00010F090F813E0182411E0012DFBD130789C
:105AC000B8710CE000E004E0012DF4D13078F871F9
:105AD00005E00098272801D2022D02D0022420469A
